{
  "_format": "hh-sol-artifact-1",
  "contractName": "ForensicAudit",
  "sourceName": "src/ForensicAudit.sol",
  "abi": [
    {
      "inputs": [],
      "stateMutability": "nonpayable",
      "type": "constructor"
    },
    {
      "anonymous": false,
      "inputs": [
        {
          "indexed": true,
          "internalType": "address",
          "name": "investigator_id",
          "type": "address"
        }
      ],
      "name": "InvestigatorReinstated",
      "type": "event"
    },
    {
      "anonymous": false,
      "inputs": [
        {
          "indexed": true,
          "internalType": "address",
          "name": "investigator_id",
          "type": "address"
        },
        {
          "indexed": false,
          "internalType": "uint256",
          "name": "timestamp",
          "type": "uint256"
        }
      ],
      "name": "InvestigatorSuspended",
      "type": "event"
    },
    {
      "anonymous": false,
      "inputs": [
        {
          "indexed": true,
          "internalType": "uint256",
          "name": "logIndex",
          "type": "uint256"
        },
        {
          "indexed": true,
          "internalType": "address",
          "name": "investigator_id",
          "type": "address"
        },
        {
          "indexed": false,
          "internalType": "string",
          "name": "query_type",
          "type": "string"
        },
        {
          "indexed": false,
          "internalType": "bytes32",
          "name": "profile_hash",
          "type": "bytes32"
        },
        {
          "indexed": false,
          "internalType": "uint256",
          "name": "timestamp",
          "type": "uint256"
        }
      ],
      "name": "QueryLogged",
      "type": "event"
    },
    {
      "anonymous": false,
      "inputs": [
        {
          "indexed": true,
          "internalType": "address",
          "name": "investigator_id",
          "type": "address"
        }
      ],
      "name": "TokenGranted",
      "type": "event"
    },
    {
      "anonymous": false,
      "inputs": [
        {
          "indexed": true,
          "internalType": "address",
          "name": "investigator_id",
          "type": "address"
        }
      ],
      "name": "TokenRevoked",
      "type": "event"
    },
    {
      "inputs": [
        {
          "internalType": "address",
          "name": "",
          "type": "address"
        }
      ],
      "name": "active_tokens",
      "outputs": [
        {
          "internalType": "bool",
          "name": "",
          "type": "bool"
        }
      ],
      "stateMutability": "view",
      "type": "function"
    },
    {
      "inputs": [
        {
          "internalType": "uint256",
          "name": "_index",
          "type": "uint256"
        }
      ],
      "name": "getLog",
      "outputs": [
        {
          "components": [
            {
              "internalType": "address",
              "name": "investigator_id",
              "type": "address"
            },
            {
              "internalType": "string",
              "name": "query_type",
              "type": "string"
            },
            {
              "internalType": "bytes32",
              "name": "profile_hash",
              "type": "bytes32"
            },
            {
              "internalType": "uint256",
              "name": "timestamp",
              "type": "uint256"
            }
          ],
          "internalType": "struct ForensicAudit.LogEntry",
          "name": "",
          "type": "tuple"
        }
      ],
      "stateMutability": "view",
      "type": "function"
    },
    {
      "inputs": [],
      "name": "getLogCount",
      "outputs": [
        {
          "internalType": "uint256",
          "name": "",
          "type": "uint256"
        }
      ],
      "stateMutability": "view",
      "type": "function"
    },
    {
      "inputs": [
        {
          "internalType": "address",
          "name": "_investigator",
          "type": "address"
        }
      ],
      "name": "grantToken",
      "outputs": [],
      "stateMutability": "nonpayable",
      "type": "function"
    },
    {
      "inputs": [
        {
          "internalType": "address",
          "name": "",
          "type": "address"
        }
      ],
      "name": "investigator_status",
      "outputs": [
        {
          "internalType": "enum ForensicAudit.Status",
          "name": "",
          "type": "uint8"
        }
      ],
      "stateMutability": "view",
      "type": "function"
    },
    {
      "inputs": [
        {
          "internalType": "string",
          "name": "_queryType",
          "type": "string"
        },
        {
          "internalType": "bytes32",
          "name": "_profileHash",
          "type": "bytes32"
        }
      ],
      "name": "logQuery",
      "outputs": [],
      "stateMutability": "nonpayable",
      "type": "function"
    },
    {
      "inputs": [
        {
          "internalType": "uint256",
          "name": "",
          "type": "uint256"
        }
      ],
      "name": "logs",
      "outputs": [
        {
          "internalType": "address",
          "name": "investigator_id",
          "type": "address"
        },
        {
          "internalType": "string",
          "name": "query_type",
          "type": "string"
        },
        {
          "internalType": "bytes32",
          "name": "profile_hash",
          "type": "bytes32"
        },
        {
          "internalType": "uint256",
          "name": "timestamp",
          "type": "uint256"
        }
      ],
      "stateMutability": "view",
      "type": "function"
    },
    {
      "inputs": [],
      "name": "owner",
      "outputs": [
        {
          "internalType": "address",
          "name": "",
          "type": "address"
        }
      ],
      "stateMutability": "view",
      "type": "function"
    },
    {
      "inputs": [
        {
          "internalType": "address",
          "name": "_investigator",
          "type": "address"
        }
      ],
      "name": "reinstateInvestigator",
      "outputs": [],
      "stateMutability": "nonpayable",
      "type": "function"
    },
    {
      "inputs": [
        {
          "internalType": "address",
          "name": "_investigator",
          "type": "address"
        }
      ],
      "name": "revokeToken",
      "outputs": [],
      "stateMutability": "nonpayable",
      "type": "function"
    }
  ],
  "bytecode": "0x608060405234801561001057600080fd5b50336000806101000a81548173ffffffffffffffffffffffffffffffffffffffff021916908373ffffffffffffffffffffffffffffffffffffffff160217905550611c22806100606000396000f3fe608060405234801561001057600080fd5b506004361061009e5760003560e01c806379d3d5471161006657806379d3d547146101595780638da5cb5b14610175578063933f4eef14610193578063a16b0db0146101af578063e79899bd146101df5761009e565b806305ef4d5b146100a35780633206b2c6146100d357806339866e7e14610103578063618033db1461011f57806361d2a6bf1461013d575b600080fd5b6100bd60048036038101906100b89190610f43565b610212565b6040516100ca9190610fe7565b60405180910390f35b6100ed60048036038101906100e89190611038565b610232565b6040516100fa919061118f565b60405180910390f35b61011d60048036038101906101189190611242565b6103b1565b005b610127610836565b60405161013491906112b1565b60405180910390f35b61015760048036038101906101529190610f43565b610843565b005b610173600480360381019061016e9190610f43565b610a8b565b005b61017d610c1f565b60405161018a91906112db565b60405180910390f35b6101ad60048036038101906101a89190610f43565b610c43565b005b6101c960048036038101906101c49190610f43565b610d6f565b6040516101d69190611311565b60405180910390f35b6101f960048036038101906101f49190611038565b610d8f565b6040516102099493929190611385565b60405180910390f35b60036020528060005260406000206000915054906101000a900460ff1681565b61023a610e77565b6001805490508210610281576040517f08c379a000000000000000000000000000000000000000000000000000000000815260040161027890611443565b60405180910390fd5b6001828154811061029557610294611463565b5b90600052602060002090600402016040518060800160405290816000820160009054906101000a900473ffffffffffffffffffffffffffffffffffffffff1673ffffffffffffffffffffffffffffffffffffffff1673ffffffffffffffffffffffffffffffffffffffff168152602001600182018054610314906114c1565b80601f0160208091040260200160405190810160405280929190818152602001828054610340906114c1565b801561038d5780601f106103625761010080835404028352916020019161038d565b820191906000526020600020905b81548152906001019060200180831161037057829003601f168201915b50505050508152602001600282015481526020016003820154815250509050919050565b600260003373ffffffffffffffffffffffffffffffffffffffff1673ffffffffffffffffffffffffffffffffffffffff16815260200190815260200160002060009054906101000a900460ff1661043d576040517f08c379a000000000000000000000000000000000000000000000000000000000815260040161043490611564565b60405180910390fd5b6000600181111561045157610450610f70565b5b600360003373ffffffffffffffffffffffffffffffffffffffff1673ffffffffffffffffffffffffffffffffffffffff16815260200190815260200160002060009054906101000a900460ff1660018111156104b0576104af610f70565b5b146104f0576040517f08c379a00000000000000000000000000000000000000000000000000000000081526004016104e7906115f6565b60405180910390fd5b6000600460003373ffffffffffffffffffffffffffffffffffffffff1673ffffffffffffffffffffffffffffffffffffffff168152602001908152602001600020905060008160000182600501546005811061054f5761054e611463565b5b01549050600081141580156105705750603c814261056d9190611645565b11155b15610666576001600360003373ffffffffffffffffffffffffffffffffffffffff1673ffffffffffffffffffffffffffffffffffffffff16815260200190815260200160002060006101000a81548160ff021916908360018111156105d8576105d7610f70565b5b02179055503373ffffffffffffffffffffffffffffffffffffffff167f4686ba6823fee57468519b14f5e2b44d09ee50a63c6cd759c7e9c54c5541545a4260405161062391906112b1565b60405180910390a26040517f08c379a000000000000000000000000000000000000000000000000000000000815260040161065d906116eb565b60405180910390fd5b428260000183600501546005811061068157610680611463565b5b0181905550600560018360050154610699919061170b565b6106a3919061176e565b8260050181905550600060405180608001604052803373ffffffffffffffffffffffffffffffffffffffff16815260200187878080601f016020809104026020016040519081016040528093929190818152602001838380828437600081840152601f19601f820116905080830192505050505050508152602001858152602001428152509050600181908060018154018082558091505060019003906000526020600020906004020160009091909190915060008201518160000160006101000a81548173ffffffffffffffffffffffffffffffffffffffff021916908373ffffffffffffffffffffffffffffffffffffffff16021790555060208201518160010190816107b2919061197a565b50604082015181600201556060820151816003015550503373ffffffffffffffffffffffffffffffffffffffff16600180805490506107f19190611645565b7f79072d9bee09f93b4900032f6368c206bebd16c2d0f8a6bc019b03e2b168d4ed888888426040516108269493929190611a88565b60405180910390a3505050505050565b6000600180549050905090565b60008054906101000a900473ffffffffffffffffffffffffffffffffffffffff1673ffffffffffffffffffffffffffffffffffffffff163373ffffffffffffffffffffffffffffffffffffffff16146108d1576040517f08c379a00000000000000000000000000000000000000000000000000000000081526004016108c890611b3a565b60405180910390fd5b6001808111156108e4576108e3610f70565b5b600360008373ffffffffffffffffffffffffffffffffffffffff1673ffffffffffffffffffffffffffffffffffffffff16815260200190815260200160002060009054906101000a900460ff16600181111561094357610942610f70565b5b14610983576040517f08c379a000000000000000000000000000000000000000000000000000000000815260040161097a90611bcc565b60405180910390fd5b6000600360008373ffffffffffffffffffffffffffffffffffffffff1673ffffffffffffffffffffffffffffffffffffffff16815260200190815260200160002060006101000a81548160ff021916908360018111156109e6576109e5610f70565b5b0217905550600460008273ffffffffffffffffffffffffffffffffffffffff1673ffffffffffffffffffffffffffffffffffffffff16815260200190815260200160002060008082016000610a3b9190610eb8565b600582016000905550508073ffffffffffffffffffffffffffffffffffffffff167f4b7d92215363bfa0a15c2df91163b04db19177ef65dde2eceb4f1b80d443b84460405160405180910390a250565b60008054906101000a900473ffffffffffffffffffffffffffffffffffffffff1673ffffffffffffffffffffffffffffffffffffffff163373ffffffffffffffffffffffffffffffffffffffff1614610b19576040517f08c379a0000000000000000000000000000000000000000000000000000000008152600401610b1090611b3a565b60405180910390fd5b6001600260008373ffffffffffffffffffffffffffffffffffffffff1673ffffffffffffffffffffffffffffffffffffffff16815260200190815260200160002060006101000a81548160ff0219169083151502179055506000600360008373ffffffffffffffffffffffffffffffffffffffff1673ffffffffffffffffffffffffffffffffffffffff16815260200190815260200160002060006101000a81548160ff02191690836001811115610bd457610bd3610f70565b5b02179055508073ffffffffffffffffffffffffffffffffffffffff167f52133ca86a0b20d025852c627bd9d5c8e6037a237d7ef7d22f399ae642e6b9b460405160405180910390a250565b60008054906101000a900473ffffffffffffffffffffffffffffffffffffffff1681565b60008054906101000a900473ffffffffffffffffffffffffffffffffffffffff1673ffffffffffffffffffffffffffffffffffffffff163373ffffffffffffffffffffffffffffffffffffffff1614610cd1576040517f08c379a0000000000000000000000000000000000000000000000000000000008152600401610cc890611b3a565b60405180910390fd5b6000600260008373ffffffffffffffffffffffffffffffffffffffff1673ffffffffffffffffffffffffffffffffffffffff16815260200190815260200160002060006101000a81548160ff0219169083151502179055508073ffffffffffffffffffffffffffffffffffffffff167f45f62f30e7b8439e0da7d8e560fe39d01238091ce9e789e3d12b514edf98acea60405160405180910390a250565b60026020528060005260406000206000915054906101000a900460ff1681565b60018181548110610d9f57600080fd5b90600052602060002090600402016000915090508060000160009054906101000a900473ffffffffffffffffffffffffffffffffffffffff1690806001018054610de8906114c1565b80601f0160208091040260200160405190810160405280929190818152602001828054610e14906114c1565b8015610e615780601f10610e3657610100808354040283529160200191610e61565b820191906000526020600020905b815481529060010190602001808311610e4457829003601f168201915b5050505050908060020154908060030154905084565b6040518060800160405280600073ffffffffffffffffffffffffffffffffffffffff1681526020016060815260200160008019168152602001600081525090565b506000815560010160008155600101600081556001016000815560010160009055565b600080fd5b600080fd5b600073ffffffffffffffffffffffffffffffffffffffff82169050919050565b6000610f1082610ee5565b9050919050565b610f2081610f05565b8114610f2b57600080fd5b50565b600081359050610f3d81610f17565b92915050565b600060208284031215610f5957610f58610edb565b5b6000610f6784828501610f2e565b91505092915050565b7f4e487b7100000000000000000000000000000000000000000000000000000000600052602160045260246000fd5b60028110610fb057610faf610f70565b5b50565b6000819050610fc182610f9f565b919050565b6000610fd182610fb3565b9050919050565b610fe181610fc6565b82525050565b6000602082019050610ffc6000830184610fd8565b92915050565b6000819050919050565b61101581611002565b811461102057600080fd5b50565b6000813590506110328161100c565b92915050565b60006020828403121561104e5761104d610edb565b5b600061105c84828501611023565b91505092915050565b61106e81610f05565b82525050565b600081519050919050565b600082825260208201905092915050565b60005b838110156110ae578082015181840152602081019050611093565b60008484015250505050565b6000601f19601f8301169050919050565b60006110d682611074565b6110e0818561107f565b93506110f0818560208601611090565b6110f9816110ba565b840191505092915050565b6000819050919050565b61111781611104565b82525050565b61112681611002565b82525050565b60006080830160008301516111446000860182611065565b506020830151848203602086015261115c82826110cb565b9150506040830151611171604086018261110e565b506060830151611184606086018261111d565b508091505092915050565b600060208201905081810360008301526111a9818461112c565b905092915050565b600080fd5b600080fd5b600080fd5b60008083601f8401126111d6576111d56111b1565b5b8235905067ffffffffffffffff8111156111f3576111f26111b6565b5b60208301915083600182028301111561120f5761120e6111bb565b5b9250929050565b61121f81611104565b811461122a57600080fd5b50565b60008135905061123c81611216565b92915050565b60008060006040848603121561125b5761125a610edb565b5b600084013567ffffffffffffffff81111561127957611278610ee0565b5b611285868287016111c0565b935093505060206112988682870161122d565b9150509250925092565b6112ab81611002565b82525050565b60006020820190506112c660008301846112a2565b92915050565b6112d581610f05565b82525050565b60006020820190506112f060008301846112cc565b92915050565b60008115159050919050565b61130b816112f6565b82525050565b60006020820190506113266000830184611302565b92915050565b600082825260208201905092915050565b600061134882611074565b611352818561132c565b9350611362818560208601611090565b61136b816110ba565b840191505092915050565b61137f81611104565b82525050565b600060808201905061139a60008301876112cc565b81810360208301526113ac818661133d565b90506113bb6040830185611376565b6113c860608301846112a2565b95945050505050565b7f466f72656e73696341756469743a20696e646578206f7574206f6620626f756e60008201527f6473000000000000000000000000000000000000000000000000000000000000602082015250565b600061142d60228361132c565b9150611438826113d1565b604082019050919050565b6000602082019050818103600083015261145c81611420565b9050919050565b7f4e487b7100000000000000000000000000000000000000000000000000000000600052603260045260246000fd5b7f4e487b7100000000000000000000000000000000000000000000000000000000600052602260045260246000fd5b600060028204905060018216806114d957607f821691505b6020821081036114ec576114eb611492565b5b50919050565b7f466f72656e73696341756469743a206e6f2076616c696420616363657373207460008201527f6f6b656e00000000000000000000000000000000000000000000000000000000602082015250565b600061154e60248361132c565b9150611559826114f2565b604082019050919050565b6000602082019050818103600083015261157d81611541565b9050919050565b7f466f72656e73696341756469743a20696e76657374696761746f72206973205360008201527f555350454e444544000000000000000000000000000000000000000000000000602082015250565b60006115e060288361132c565b91506115eb82611584565b604082019050919050565b6000602082019050818103600083015261160f816115d3565b9050919050565b7f4e487b7100000000000000000000000000000000000000000000000000000000600052601160045260246000fd5b600061165082611002565b915061165b83611002565b925082820390508181111561167357611672611616565b5b92915050565b7f466f72656e73696341756469743a2072617465206c696d69742065786365656460008201527f6564202d2d20696e76657374696761746f722053555350454e44454400000000602082015250565b60006116d5603c8361132c565b91506116e082611679565b604082019050919050565b60006020820190508181036000830152611704816116c8565b9050919050565b600061171682611002565b915061172183611002565b925082820190508082111561173957611738611616565b5b92915050565b7f4e487b7100000000000000000000000000000000000000000000000000000000600052601260045260246000fd5b600061177982611002565b915061178483611002565b9250826117945761179361173f565b5b828206905092915050565b7f4e487b7100000000000000000000000000000000000000000000000000000000600052604160045260246000fd5b60008190508160005260206000209050919050565b60006020601f8301049050919050565b600082821b905092915050565b6000600883026118307fffffffffffffffffffffffffffffffffffffffffffffffffffffffffffffffff826117f3565b61183a86836117f3565b95508019841693508086168417925050509392505050565b6000819050919050565b600061187761187261186d84611002565b611852565b611002565b9050919050565b6000819050919050565b6118918361185c565b6118a561189d8261187e565b848454611800565b825550505050565b600090565b6118ba6118ad565b6118c5818484611888565b505050565b5b818110156118e9576118de6000826118b2565b6001810190506118cb565b5050565b601f82111561192e576118ff816117ce565b611908846117e3565b81016020851015611917578190505b61192b611923856117e3565b8301826118ca565b50505b505050565b600082821c905092915050565b600061195160001984600802611933565b1980831691505092915050565b600061196a8383611940565b9150826002028217905092915050565b61198382611074565b67ffffffffffffffff81111561199c5761199b61179f565b5b6119a682546114c1565b6119b18282856118ed565b600060209050601f8311600181146119e457600084156119d2578287015190505b6119dc858261195e565b865550611a44565b601f1984166119f2866117ce565b60005b82811015611a1a578489015182556001820191506020850194506020810190506119f5565b86831015611a375784890151611a33601f891682611940565b8355505b6001600288020188555050505b505050505050565b82818337600083830152505050565b6000611a67838561132c565b9350611a74838584611a4c565b611a7d836110ba565b840190509392505050565b60006060820190508181036000830152611aa3818688611a5b565b9050611ab26020830185611376565b611abf60408301846112a2565b95945050505050565b7f466f72656e73696341756469743a2063616c6c6572206973206e6f742074686560008201527f206f776e65720000000000000000000000000000000000000000000000000000602082015250565b6000611b2460268361132c565b9150611b2f82611ac8565b604082019050919050565b60006020820190508181036000830152611b5381611b17565b9050919050565b7f466f72656e73696341756469743a20696e76657374696761746f72206973206e60008201527f6f742073757370656e6465640000000000000000000000000000000000000000602082015250565b6000611bb6602c8361132c565b9150611bc182611b5a565b604082019050919050565b60006020820190508181036000830152611be581611ba9565b905091905056fea26469706673582212203c3820e7804a09fb24ae27aa8c75016f12a1a932f9866c435713d52edaef077564736f6c63430008180033",
  "linkReferences": {},
  "deployedLinkReferences": {}
}