{
  "_format": "hh-sol-artifact-1",
  "contractName": "VantageAudit",
  "sourceName": "src/VantageAudit.sol",
  "abi": [
    {
      "inputs": [],
      "stateMutability": "nonpayable",
      "type": "constructor"
    },
    {
      "inputs": [],
      "name": "EnforcedPause",
      "type": "error"
    },
    {
      "inputs": [],
      "name": "ExpectedPause",
      "type": "error"
    },
    {
      "inputs": [
        {
          "internalType": "address",
          "name": "owner",
          "type": "address"
        }
      ],
      "name": "OwnableInvalidOwner",
      "type": "error"
    },
    {
      "inputs": [
        {
          "internalType": "address",
          "name": "account",
          "type": "address"
        }
      ],
      "name": "OwnableUnauthorizedAccount",
      "type": "error"
    },
    {
      "anonymous": false,
      "inputs": [
        {
          "indexed": false,
          "internalType": "uint256",
          "name": "timestamp",
          "type": "uint256"
        },
        {
          "indexed": false,
          "internalType": "string",
          "name": "reason",
          "type": "string"
        }
      ],
      "name": "GlobalLockdownTriggered",
      "type": "event"
    },
    {
      "anonymous": false,
      "inputs": [
        {
          "indexed": true,
          "internalType": "address",
          "name": "investigator",
          "type": "address"
        },
        {
          "indexed": false,
          "internalType": "string",
          "name": "name",
          "type": "string"
        }
      ],
      "name": "InvestigatorAuthorized",
      "type": "event"
    },
    {
      "anonymous": false,
      "inputs": [
        {
          "indexed": true,
          "internalType": "address",
          "name": "investigator",
          "type": "address"
        }
      ],
      "name": "InvestigatorRevoked",
      "type": "event"
    },
    {
      "anonymous": false,
      "inputs": [
        {
          "indexed": true,
          "internalType": "address",
          "name": "previousOwner",
          "type": "address"
        },
        {
          "indexed": true,
          "internalType": "address",
          "name": "newOwner",
          "type": "address"
        }
      ],
      "name": "OwnershipTransferred",
      "type": "event"
    },
    {
      "anonymous": false,
      "inputs": [
        {
          "indexed": false,
          "internalType": "address",
          "name": "account",
          "type": "address"
        }
      ],
      "name": "Paused",
      "type": "event"
    },
    {
      "anonymous": false,
      "inputs": [
        {
          "indexed": true,
          "internalType": "uint256",
          "name": "logIndex",
          "type": "uint256"
        },
        {
          "indexed": true,
          "internalType": "address",
          "name": "investigator",
          "type": "address"
        },
        {
          "indexed": false,
          "internalType": "string",
          "name": "queryType",
          "type": "string"
        },
        {
          "indexed": false,
          "internalType": "bytes32",
          "name": "profileHash",
          "type": "bytes32"
        },
        {
          "indexed": false,
          "internalType": "uint256",
          "name": "timestamp",
          "type": "uint256"
        }
      ],
      "name": "QueryLogged",
      "type": "event"
    },
    {
      "anonymous": false,
      "inputs": [
        {
          "indexed": true,
          "internalType": "address",
          "name": "investigator",
          "type": "address"
        }
      ],
      "name": "RateLimitExceeded",
      "type": "event"
    },
    {
      "anonymous": false,
      "inputs": [
        {
          "indexed": true,
          "internalType": "address",
          "name": "investigator",
          "type": "address"
        },
        {
          "indexed": false,
          "internalType": "bytes32",
          "name": "sessionToken",
          "type": "bytes32"
        }
      ],
      "name": "SessionGranted",
      "type": "event"
    },
    {
      "anonymous": false,
      "inputs": [
        {
          "indexed": false,
          "internalType": "address",
          "name": "account",
          "type": "address"
        }
      ],
      "name": "Unpaused",
      "type": "event"
    },
    {
      "inputs": [],
      "name": "GLOBAL_FAILURE_THRESHOLD",
      "outputs": [
        {
          "internalType": "uint256",
          "name": "",
          "type": "uint256"
        }
      ],
      "stateMutability": "view",
      "type": "function"
    },
    {
      "inputs": [],
      "name": "RATE_LIMIT_THRESHOLD",
      "outputs": [
        {
          "internalType": "uint256",
          "name": "",
          "type": "uint256"
        }
      ],
      "stateMutability": "view",
      "type": "function"
    },
    {
      "inputs": [],
      "name": "RATE_LIMIT_WINDOW",
      "outputs": [
        {
          "internalType": "uint256",
          "name": "",
          "type": "uint256"
        }
      ],
      "stateMutability": "view",
      "type": "function"
    },
    {
      "inputs": [
        {
          "internalType": "uint256",
          "name": "",
          "type": "uint256"
        }
      ],
      "name": "auditTrail",
      "outputs": [
        {
          "internalType": "address",
          "name": "investigator",
          "type": "address"
        },
        {
          "internalType": "string",
          "name": "queryType",
          "type": "string"
        },
        {
          "internalType": "bytes32",
          "name": "profileHash",
          "type": "bytes32"
        },
        {
          "internalType": "uint256",
          "name": "timestamp",
          "type": "uint256"
        }
      ],
      "stateMutability": "view",
      "type": "function"
    },
    {
      "inputs": [
        {
          "internalType": "address",
          "name": "_investigator",
          "type": "address"
        },
        {
          "internalType": "string",
          "name": "_name",
          "type": "string"
        }
      ],
      "name": "authorizeInvestigator",
      "outputs": [],
      "stateMutability": "nonpayable",
      "type": "function"
    },
    {
      "inputs": [],
      "name": "getAuditLength",
      "outputs": [
        {
          "internalType": "uint256",
          "name": "",
          "type": "uint256"
        }
      ],
      "stateMutability": "view",
      "type": "function"
    },
    {
      "inputs": [
        {
          "internalType": "address",
          "name": "_addr",
          "type": "address"
        }
      ],
      "name": "getInvestigator",
      "outputs": [
        {
          "components": [
            {
              "internalType": "string",
              "name": "name",
              "type": "string"
            },
            {
              "internalType": "bool",
              "name": "isAuthorized",
              "type": "bool"
            },
            {
              "internalType": "uint256",
              "name": "createdAt",
              "type": "uint256"
            }
          ],
          "internalType": "struct VantageAudit.Profile",
          "name": "",
          "type": "tuple"
        }
      ],
      "stateMutability": "view",
      "type": "function"
    },
    {
      "inputs": [],
      "name": "globalFailureCount",
      "outputs": [
        {
          "internalType": "uint256",
          "name": "",
          "type": "uint256"
        }
      ],
      "stateMutability": "view",
      "type": "function"
    },
    {
      "inputs": [
        {
          "internalType": "address",
          "name": "_investigator",
          "type": "address"
        },
        {
          "internalType": "bytes32",
          "name": "_newToken",
          "type": "bytes32"
        }
      ],
      "name": "grantSession",
      "outputs": [],
      "stateMutability": "nonpayable",
      "type": "function"
    },
    {
      "inputs": [],
      "name": "lastFailureTimestamp",
      "outputs": [
        {
          "internalType": "uint256",
          "name": "",
          "type": "uint256"
        }
      ],
      "stateMutability": "view",
      "type": "function"
    },
    {
      "inputs": [],
      "name": "liftLockdown",
      "outputs": [],
      "stateMutability": "nonpayable",
      "type": "function"
    },
    {
      "inputs": [
        {
          "internalType": "string",
          "name": "_queryType",
          "type": "string"
        },
        {
          "internalType": "bytes32",
          "name": "_profileHash",
          "type": "bytes32"
        },
        {
          "internalType": "bytes32",
          "name": "_sessionToken",
          "type": "bytes32"
        }
      ],
      "name": "logQuery",
      "outputs": [],
      "stateMutability": "nonpayable",
      "type": "function"
    },
    {
      "inputs": [],
      "name": "owner",
      "outputs": [
        {
          "internalType": "address",
          "name": "",
          "type": "address"
        }
      ],
      "stateMutability": "view",
      "type": "function"
    },
    {
      "inputs": [],
      "name": "paused",
      "outputs": [
        {
          "internalType": "bool",
          "name": "",
          "type": "bool"
        }
      ],
      "stateMutability": "view",
      "type": "function"
    },
    {
      "inputs": [
        {
          "internalType": "address",
          "name": "",
          "type": "address"
        }
      ],
      "name": "profiles",
      "outputs": [
        {
          "internalType": "string",
          "name": "name",
          "type": "string"
        },
        {
          "internalType": "bool",
          "name": "isAuthorized",
          "type": "bool"
        },
        {
          "internalType": "uint256",
          "name": "createdAt",
          "type": "uint256"
        }
      ],
      "stateMutability": "view",
      "type": "function"
    },
    {
      "inputs": [],
      "name": "renounceOwnership",
      "outputs": [],
      "stateMutability": "nonpayable",
      "type": "function"
    },
    {
      "inputs": [
        {
          "internalType": "address",
          "name": "_investigator",
          "type": "address"
        }
      ],
      "name": "revokeInvestigator",
      "outputs": [],
      "stateMutability": "nonpayable",
      "type": "function"
    },
    {
      "inputs": [
        {
          "internalType": "address",
          "name": "newOwner",
          "type": "address"
        }
      ],
      "name": "transferOwnership",
      "outputs": [],
      "stateMutability": "nonpayable",
      "type": "function"
    }
  ],
  "bytecode": "0x60806040523480156200001157600080fd5b5033600073ffffffffffffffffffffffffffffffffffffffff168173ffffffffffffffffffffffffffffffffffffffff1603620000885760006040517f1e4fbdf70000000000000000000000000000000000000000000000000000000081526004016200007f9190620001a9565b60405180910390fd5b6200009981620000a060201b60201c565b50620001c6565b60008060009054906101000a900473ffffffffffffffffffffffffffffffffffffffff169050816000806101000a81548173ffffffffffffffffffffffffffffffffffffffff021916908373ffffffffffffffffffffffffffffffffffffffff1602179055508173ffffffffffffffffffffffffffffffffffffffff168173ffffffffffffffffffffffffffffffffffffffff167f8be0079c531659141344cd1fd0a4f28419497f9722a3daafe3b4186f6b6457e060405160405180910390a35050565b600073ffffffffffffffffffffffffffffffffffffffff82169050919050565b6000620001918262000164565b9050919050565b620001a38162000184565b82525050565b6000602082019050620001c0600083018462000198565b92915050565b611e1880620001d66000396000f3fe608060405234801561001057600080fd5b50600436106101165760003560e01c80639b5e5b48116100a2578063bbe1562711610071578063bbe1562714610287578063ddaf0929146102b9578063ef71a2f9146102ec578063f2fde38b14610308578063f4eb3b021461032457610116565b80639b5e5b4814610211578063a79c07f91461022f578063acf184da1461024d578063b9f55b151461026b57610116565b8063715018a6116100e9578063715018a614610193578063723930241461019d5780637d144ad6146101b95780638975ace3146101e95780638da5cb5b146101f357610116565b806329ef5c1b1461011b578063499ca569146101395780635c975abb146101575780637130dfc914610175575b600080fd5b610123610340565b6040516101309190611262565b60405180910390f35b610141610345565b60405161014e9190611262565b60405180910390f35b61015f61034b565b60405161016c9190611298565b60405180910390f35b61017d610361565b60405161018a9190611262565b60405180910390f35b61019b610366565b005b6101b760048036038101906101b29190611358565b61037a565b005b6101d360048036038101906101ce919061142a565b61066e565b6040516101e09190611555565b60405180910390f35b6101f161077e565b005b6101fb610798565b6040516102089190611586565b60405180910390f35b6102196107c1565b6040516102269190611262565b60405180910390f35b6102376107c6565b6040516102449190611262565b60405180910390f35b6102556107cc565b6040516102629190611262565b60405180910390f35b610285600480360381019061028091906115a1565b6107d9565b005b6102a1600480360381019061029c919061142a565b610906565b6040516102b09392919061162b565b60405180910390f35b6102d360048036038101906102ce9190611695565b6109c5565b6040516102e394939291906116d1565b60405180910390f35b6103066004803603810190610301919061142a565b610aad565b005b610322600480360381019061031d919061142a565b610b99565b005b61033e6004803603810190610339919061171d565b610c1f565b005b600581565b60055481565b60008060149054906101000a900460ff16905090565b603c81565b61036e610d60565b6103786000610de7565b565b8061038361034b565b156103c3576040517f08c379a00000000000000000000000000000000000000000000000000000000081526004016103ba906117c9565b60405180910390fd5b600160003373ffffffffffffffffffffffffffffffffffffffff1673ffffffffffffffffffffffffffffffffffffffff16815260200190815260200160002060010160009054906101000a900460ff16610452576040517f08c379a000000000000000000000000000000000000000000000000000000000815260040161044990611835565b60405180910390fd5b80600260003373ffffffffffffffffffffffffffffffffffffffff1673ffffffffffffffffffffffffffffffffffffffff16815260200190815260200160002054146104d3576040517f08c379a00000000000000000000000000000000000000000000000000000000081526004016104ca906118a1565b60405180910390fd5b6104dc33610eab565b1561066757600060405180608001604052803373ffffffffffffffffffffffffffffffffffffffff16815260200187878080601f016020809104026020016040519081016040528093929190818152602001838380828437600081840152601f19601f820116905080830192505050505050508152602001858152602001428152509050600381908060018154018082558091505060019003906000526020600020906004020160009091909190915060008201518160000160006101000a81548173ffffffffffffffffffffffffffffffffffffffff021916908373ffffffffffffffffffffffffffffffffffffffff16021790555060208201518160010190816105e89190611afc565b50604082015181600201556060820151816003015550503373ffffffffffffffffffffffffffffffffffffffff1660016003805490506106289190611bfd565b7f79072d9bee09f93b4900032f6368c206bebd16c2d0f8a6bc019b03e2b168d4ed8888884260405161065d9493929190611c6d565b60405180910390a3505b5050505050565b610676611226565b600160008373ffffffffffffffffffffffffffffffffffffffff1673ffffffffffffffffffffffffffffffffffffffff1681526020019081526020016000206040518060600160405290816000820180546106d09061191f565b80601f01602080910402602001604051908101604052809291908181526020018280546106fc9061191f565b80156107495780601f1061071e57610100808354040283529160200191610749565b820191906000526020600020905b81548152906001019060200180831161072c57829003601f168201915b505050505081526020016001820160009054906101000a900460ff161515151581526020016002820154815250509050919050565b610786610d60565b61078e611049565b6000600581905550565b60008060009054906101000a900473ffffffffffffffffffffffffffffffffffffffff16905090565b600a81565b60065481565b6000600380549050905090565b6107e1610d60565b600160008373ffffffffffffffffffffffffffffffffffffffff1673ffffffffffffffffffffffffffffffffffffffff16815260200190815260200160002060010160009054906101000a900460ff16610870576040517f08c379a000000000000000000000000000000000000000000000000000000000815260040161086790611835565b60405180910390fd5b80600260008473ffffffffffffffffffffffffffffffffffffffff1673ffffffffffffffffffffffffffffffffffffffff168152602001908152602001600020819055508173ffffffffffffffffffffffffffffffffffffffff167f0bda40d5d3ed27934ae8f78393cf0044db548ec5868c6c1e81774316031647fe826040516108fa9190611cad565b60405180910390a25050565b60016020528060005260406000206000915090508060000180546109299061191f565b80601f01602080910402602001604051908101604052809291908181526020018280546109559061191f565b80156109a25780601f10610977576101008083540402835291602001916109a2565b820191906000526020600020905b81548152906001019060200180831161098557829003601f168201915b5050505050908060010160009054906101000a900460ff16908060020154905083565b600381815481106109d557600080fd5b90600052602060002090600402016000915090508060000160009054906101000a900473ffffffffffffffffffffffffffffffffffffffff1690806001018054610a1e9061191f565b80601f0160208091040260200160405190810160405280929190818152602001828054610a4a9061191f565b8015610a975780601f10610a6c57610100808354040283529160200191610a97565b820191906000526020600020905b815481529060010190602001808311610a7a57829003601f168201915b5050505050908060020154908060030154905084565b610ab5610d60565b6000600160008373ffffffffffffffffffffffffffffffffffffffff1673ffffffffffffffffffffffffffffffffffffffff16815260200190815260200160002060010160006101000a81548160ff021916908315150217905550600260008273ffffffffffffffffffffffffffffffffffffffff1673ffffffffffffffffffffffffffffffffffffffff168152602001908152602001600020600090558073ffffffffffffffffffffffffffffffffffffffff167fb8d207aeccb31db5f2727d6f3ebb213019eca292c8cf660477004dd23f711a7960405160405180910390a250565b610ba1610d60565b600073ffffffffffffffffffffffffffffffffffffffff168173ffffffffffffffffffffffffffffffffffffffff1603610c135760006040517f1e4fbdf7000000000000000000000000000000000000000000000000000000008152600401610c0a9190611586565b60405180910390fd5b610c1c81610de7565b50565b610c27610d60565b604051806060016040528083838080601f016020809104026020016040519081016040528093929190818152602001838380828437600081840152601f19601f82011690508083019250505050505050815260200160011515815260200142815250600160008573ffffffffffffffffffffffffffffffffffffffff1673ffffffffffffffffffffffffffffffffffffffff1681526020019081526020016000206000820151816000019081610cdd9190611afc565b5060208201518160010160006101000a81548160ff021916908315150217905550604082015181600201559050508273ffffffffffffffffffffffffffffffffffffffff167f6413ba6b67fa2463059d5cdbfb9d4de361d0096586873ecd5349b8b7bc389ad28383604051610d53929190611cc8565b60405180910390a2505050565b610d686110ab565b73ffffffffffffffffffffffffffffffffffffffff16610d86610798565b73ffffffffffffffffffffffffffffffffffffffff1614610de557610da96110ab565b6040517f118cdaa7000000000000000000000000000000000000000000000000000000008152600401610ddc9190611586565b60405180910390fd5b565b60008060009054906101000a900473ffffffffffffffffffffffffffffffffffffffff169050816000806101000a81548173ffffffffffffffffffffffffffffffffffffffff021916908373ffffffffffffffffffffffffffffffffffffffff1602179055508173ffffffffffffffffffffffffffffffffffffffff168173ffffffffffffffffffffffffffffffffffffffff167f8be0079c531659141344cd1fd0a4f28419497f9722a3daafe3b4186f6b6457e060405160405180910390a35050565b600080600460008473ffffffffffffffffffffffffffffffffffffffff1673ffffffffffffffffffffffffffffffffffffffff1681526020019081526020016000209050603c8160010154610f009190611cec565b421115610f2457600181600001819055504281600101819055506001915050611044565b806000016000815480929190610f3990611d20565b919050555060058160000154111561103e576000600160008573ffffffffffffffffffffffffffffffffffffffff1673ffffffffffffffffffffffffffffffffffffffff16815260200190815260200160002060010160006101000a81548160ff021916908315150217905550600260008473ffffffffffffffffffffffffffffffffffffffff1673ffffffffffffffffffffffffffffffffffffffff168152602001908152602001600020600090558273ffffffffffffffffffffffffffffffffffffffff167fbab957a9c40f9484c2bee06042ea0daac6d5a077029c9dc8e6b7636c289c7f7660405160405180910390a26110346110b3565b6000915050611044565b60019150505b919050565b611051611142565b60008060146101000a81548160ff0219169083151502179055507f5db9ee0a495bf2e6ff9c91a7834c1ba4fdd244a5e8aa4e537bd38aeae4b073aa6110946110ab565b6040516110a19190611586565b60405180910390a1565b600033905090565b603c6006546110c29190611cec565b4211156110d65760016005819055506110ef565b600560008154809291906110e990611d20565b91905055505b42600681905550600a6005541061114057611108611182565b7f759e53f6478a8b8cc95821005dc24dc7bcfd5667222787f225229dd324008f63426040516111379190611db4565b60405180910390a15b565b61114a61034b565b611180576040517f8dfc202b00000000000000000000000000000000000000000000000000000000815260040160405180910390fd5b565b61118a6111e5565b6001600060146101000a81548160ff0219169083151502179055507f62e78cea01bee320cd4e420270b5ea74000d11b0c9f74754ebdbfc544b05a2586111ce6110ab565b6040516111db9190611586565b60405180910390a1565b6111ed61034b565b15611224576040517fd93c066500000000000000000000000000000000000000000000000000000000815260040160405180910390fd5b565b604051806060016040528060608152602001600015158152602001600081525090565b6000819050919050565b61125c81611249565b82525050565b60006020820190506112776000830184611253565b92915050565b60008115159050919050565b6112928161127d565b82525050565b60006020820190506112ad6000830184611289565b92915050565b600080fd5b600080fd5b600080fd5b600080fd5b600080fd5b60008083601f8401126112e2576112e16112bd565b5b8235905067ffffffffffffffff8111156112ff576112fe6112c2565b5b60208301915083600182028301111561131b5761131a6112c7565b5b9250929050565b6000819050919050565b61133581611322565b811461134057600080fd5b50565b6000813590506113528161132c565b92915050565b60008060008060608587031215611372576113716112b3565b5b600085013567ffffffffffffffff8111156113905761138f6112b8565b5b61139c878288016112cc565b945094505060206113af87828801611343565b92505060406113c087828801611343565b91505092959194509250565b600073ffffffffffffffffffffffffffffffffffffffff82169050919050565b60006113f7826113cc565b9050919050565b611407816113ec565b811461141257600080fd5b50565b600081359050611424816113fe565b92915050565b6000602082840312156114405761143f6112b3565b5b600061144e84828501611415565b91505092915050565b600081519050919050565b600082825260208201905092915050565b60005b83811015611491578082015181840152602081019050611476565b60008484015250505050565b6000601f19601f8301169050919050565b60006114b982611457565b6114c38185611462565b93506114d3818560208601611473565b6114dc8161149d565b840191505092915050565b6114f08161127d565b82525050565b6114ff81611249565b82525050565b6000606083016000830151848203600086015261152282826114ae565b915050602083015161153760208601826114e7565b50604083015161154a60408601826114f6565b508091505092915050565b6000602082019050818103600083015261156f8184611505565b905092915050565b611580816113ec565b82525050565b600060208201905061159b6000830184611577565b92915050565b600080604083850312156115b8576115b76112b3565b5b60006115c685828601611415565b92505060206115d785828601611343565b9150509250929050565b600082825260208201905092915050565b60006115fd82611457565b61160781856115e1565b9350611617818560208601611473565b6116208161149d565b840191505092915050565b6000606082019050818103600083015261164581866115f2565b90506116546020830185611289565b6116616040830184611253565b949350505050565b61167281611249565b811461167d57600080fd5b50565b60008135905061168f81611669565b92915050565b6000602082840312156116ab576116aa6112b3565b5b60006116b984828501611680565b91505092915050565b6116cb81611322565b82525050565b60006080820190506116e66000830187611577565b81810360208301526116f881866115f2565b905061170760408301856116c2565b6117146060830184611253565b95945050505050565b600080600060408486031215611736576117356112b3565b5b600061174486828701611415565b935050602084013567ffffffffffffffff811115611765576117646112b8565b5b611771868287016112cc565b92509250509250925092565b7f53797374656d20697320696e204c4f434b444f574e206d6f6465000000000000600082015250565b60006117b3601a836115e1565b91506117be8261177d565b602082019050919050565b600060208201905081810360008301526117e2816117a6565b9050919050565b7f496e76657374696761746f72206e6f7420617574686f72697a65640000000000600082015250565b600061181f601b836115e1565b915061182a826117e9565b602082019050919050565b6000602082019050818103600083015261184e81611812565b9050919050565b7f496e76616c69642073657373696f6e20746f6b656e0000000000000000000000600082015250565b600061188b6015836115e1565b915061189682611855565b602082019050919050565b600060208201905081810360008301526118ba8161187e565b9050919050565b7f4e487b7100000000000000000000000000000000000000000000000000000000600052604160045260246000fd5b7f4e487b7100000000000000000000000000000000000000000000000000000000600052602260045260246000fd5b6000600282049050600182168061193757607f821691505b60208210810361194a576119496118f0565b5b50919050565b60008190508160005260206000209050919050565b60006020601f8301049050919050565b600082821b905092915050565b6000600883026119b27fffffffffffffffffffffffffffffffffffffffffffffffffffffffffffffffff82611975565b6119bc8683611975565b95508019841693508086168417925050509392505050565b6000819050919050565b60006119f96119f46119ef84611249565b6119d4565b611249565b9050919050565b6000819050919050565b611a13836119de565b611a27611a1f82611a00565b848454611982565b825550505050565b600090565b611a3c611a2f565b611a47818484611a0a565b505050565b5b81811015611a6b57611a60600082611a34565b600181019050611a4d565b5050565b601f821115611ab057611a8181611950565b611a8a84611965565b81016020851015611a99578190505b611aad611aa585611965565b830182611a4c565b50505b505050565b600082821c905092915050565b6000611ad360001984600802611ab5565b1980831691505092915050565b6000611aec8383611ac2565b9150826002028217905092915050565b611b0582611457565b67ffffffffffffffff811115611b1e57611b1d6118c1565b5b611b28825461191f565b611b33828285611a6f565b600060209050601f831160018114611b665760008415611b54578287015190505b611b5e8582611ae0565b865550611bc6565b601f198416611b7486611950565b60005b82811015611b9c57848901518255600182019150602085019450602081019050611b77565b86831015611bb95784890151611bb5601f891682611ac2565b8355505b6001600288020188555050505b505050505050565b7f4e487b7100000000000000000000000000000000000000000000000000000000600052601160045260246000fd5b6000611c0882611249565b9150611c1383611249565b9250828203905081811115611c2b57611c2a611bce565b5b92915050565b82818337600083830152505050565b6000611c4c83856115e1565b9350611c59838584611c31565b611c628361149d565b840190509392505050565b60006060820190508181036000830152611c88818688611c40565b9050611c9760208301856116c2565b611ca46040830184611253565b95945050505050565b6000602082019050611cc260008301846116c2565b92915050565b60006020820190508181036000830152611ce3818486611c40565b90509392505050565b6000611cf782611249565b9150611d0283611249565b9250828201905080821115611d1a57611d19611bce565b5b92915050565b6000611d2b82611249565b91507fffffffffffffffffffffffffffffffffffffffffffffffffffffffffffffffff8203611d5d57611d5c611bce565b5b600182019050919050565b7f416e6f6d616c79205468726573686f6c64204578636565646564000000000000600082015250565b6000611d9e601a836115e1565b9150611da982611d68565b602082019050919050565b6000604082019050611dc96000830184611253565b8181036020830152611dda81611d91565b90509291505056fea2646970667358221220ef9679863e1b8133adc6bb6e4f81e5cef1dc93b6329d0ac83116155c2f4ef85964736f6c63430008180033",
  "linkReferences": {},
  "deployedLinkReferences": {}
}