{"src/ForensicAudit.sol":{"ForensicAudit":{"abi":[{"inputs":[],"stateMutability":"nonpayable","type":"constructor"},{"anonymous":false,"inputs":[{"indexed":true,"internalType":"address","name":"investigator_id","type":"address"}],"name":"InvestigatorReinstated","type":"event"},{"anonymous":false,"inputs":[{"indexed":true,"internalType":"address","name":"investigator_id","type":"address"},{"indexed":false,"internalType":"uint256","name":"timestamp","type":"uint256"}],"name":"InvestigatorSuspended","type":"event"},{"anonymous":false,"inputs":[{"indexed":true,"internalType":"uint256","name":"logIndex","type":"uint256"},{"indexed":true,"internalType":"address","name":"investigator_id","type":"address"},{"indexed":false,"internalType":"string","name":"query_type","type":"string"},{"indexed":false,"internalType":"bytes32","name":"profile_hash","type":"bytes32"},{"indexed":false,"internalType":"uint256","name":"timestamp","type":"uint256"}],"name":"QueryLogged","type":"event"},{"anonymous":false,"inputs":[{"indexed":true,"internalType":"address","name":"investigator_id","type":"address"}],"name":"TokenGranted","type":"event"},{"anonymous":false,"inputs":[{"indexed":true,"internalType":"address","name":"investigator_id","type":"address"}],"name":"TokenRevoked","type":"event"},{"inputs":[{"internalType":"address","name":"","type":"address"}],"name":"active_tokens","outputs":[{"internalType":"bool","name":"","type":"bool"}],"stateMutability":"view","type":"function"},{"inputs":[{"internalType":"uint256","name":"_index","type":"uint256"}],"name":"getLog","outputs":[{"components":[{"internalType":"address","name":"investigator_id","type":"address"},{"internalType":"string","name":"query_type","type":"string"},{"internalType":"bytes32","name":"profile_hash","type":"bytes32"},{"internalType":"uint256","name":"timestamp","type":"uint256"}],"internalType":"struct ForensicAudit.LogEntry","name":"","type":"tuple"}],"stateMutability":"view","type":"function"},{"inputs":[],"name":"getLogCount","outputs":[{"internalType":"uint256","name":"","type":"uint256"}],"stateMutability":"view","type":"function"},{"inputs":[{"internalType":"address","name":"_investigator","type":"address"}],"name":"grantToken","outputs":[],"stateMutability":"nonpayable","type":"function"},{"inputs":[{"internalType":"address","name":"","type":"address"}],"name":"investigator_status","outputs":[{"internalType":"enum ForensicAudit.Status","name":"","type":"uint8"}],"stateMutability":"view","type":"function"},{"inputs":[{"internalType":"string","name":"_queryType","type":"string"},{"internalType":"bytes32","name":"_profileHash","type":"bytes32"}],"name":"logQuery","outputs":[],"stateMutability":"nonpayable","type":"function"},{"inputs":[{"internalType":"uint256","name":"","type":"uint256"}],"name":"logs","outputs":[{"internalType":"address","name":"investigator_id","type":"address"},{"internalType":"string","name":"query_type","type":"string"},{"internalType":"bytes32","name":"profile_hash","type":"bytes32"},{"internalType":"uint256","name":"timestamp","type":"uint256"}],"stateMutability":"view","type":"function"},{"inputs":[],"name":"owner","outputs":[{"internalType":"address","name":"","type":"address"}],"stateMutability":"view","type":"function"},{"inputs":[{"internalType":"address","name":"_investigator","type":"address"}],"name":"reinstateInvestigator","outputs":[],"stateMutability":"nonpayable","type":"function"},{"inputs":[{"internalType":"address","name":"_investigator","type":"address"}],"name":"revokeToken","outputs":[],"stateMutability":"nonpayable","type":"function"}],"evm":{"bytecode":{"linkReferences":{},"object":"608060405234801561001057600080fd5b50336000806101000a81548173ffffffffffffffffffffffffffffffffffffffff021916908373ffffffffffffffffffffffffffffffffffffffff160217905550611c22806100606000396000f3fe608060405234801561001057600080fd5b506004361061009e5760003560e01c806379d3d5471161006657806379d3d547146101595780638da5cb5b14610175578063933f4eef14610193578063a16b0db0146101af578063e79899bd146101df5761009e565b806305ef4d5b146100a35780633206b2c6146100d357806339866e7e14610103578063618033db1461011f57806361d2a6bf1461013d575b600080fd5b6100bd60048036038101906100b89190610f43565b610212565b6040516100ca9190610fe7565b60405180910390f35b6100ed60048036038101906100e89190611038565b610232565b6040516100fa919061118f565b60405180910390f35b61011d60048036038101906101189190611242565b6103b1565b005b610127610836565b60405161013491906112b1565b60405180910390f35b61015760048036038101906101529190610f43565b610843565b005b610173600480360381019061016e9190610f43565b610a8b565b005b61017d610c1f565b60405161018a91906112db565b60405180910390f35b6101ad60048036038101906101a89190610f43565b610c43565b005b6101c960048036038101906101c49190610f43565b610d6f565b6040516101d69190611311565b60405180910390f35b6101f960048036038101906101f49190611038565b610d8f565b6040516102099493929190611385565b60405180910390f35b60036020528060005260406000206000915054906101000a900460ff1681565b61023a610e77565b6001805490508210610281576040517f08c379a000000000000000000000000000000000000000000000000000000000815260040161027890611443565b60405180910390fd5b6001828154811061029557610294611463565b5b90600052602060002090600402016040518060800160405290816000820160009054906101000a900473ffffffffffffffffffffffffffffffffffffffff1673ffffffffffffffffffffffffffffffffffffffff1673ffffffffffffffffffffffffffffffffffffffff168152602001600182018054610314906114c1565b80601f0160208091040260200160405190810160405280929190818152602001828054610340906114c1565b801561038d5780601f106103625761010080835404028352916020019161038d565b820191906000526020600020905b81548152906001019060200180831161037057829003601f168201915b50505050508152602001600282015481526020016003820154815250509050919050565b600260003373ffffffffffffffffffffffffffffffffffffffff1673ffffffffffffffffffffffffffffffffffffffff16815260200190815260200160002060009054906101000a900460ff1661043d576040517f08c379a000000000000000000000000000000000000000000000000000000000815260040161043490611564565b60405180910390fd5b6000600181111561045157610450610f70565b5b600360003373ffffffffffffffffffffffffffffffffffffffff1673ffffffffffffffffffffffffffffffffffffffff16815260200190815260200160002060009054906101000a900460ff1660018111156104b0576104af610f70565b5b146104f0576040517f08c379a00000000000000000000000000000000000000000000000000000000081526004016104e7906115f6565b60405180910390fd5b6000600460003373ffffffffffffffffffffffffffffffffffffffff1673ffffffffffffffffffffffffffffffffffffffff168152602001908152602001600020905060008160000182600501546005811061054f5761054e611463565b5b01549050600081141580156105705750603c814261056d9190611645565b11155b15610666576001600360003373ffffffffffffffffffffffffffffffffffffffff1673ffffffffffffffffffffffffffffffffffffffff16815260200190815260200160002060006101000a81548160ff021916908360018111156105d8576105d7610f70565b5b02179055503373ffffffffffffffffffffffffffffffffffffffff167f4686ba6823fee57468519b14f5e2b44d09ee50a63c6cd759c7e9c54c5541545a4260405161062391906112b1565b60405180910390a26040517f08c379a000000000000000000000000000000000000000000000000000000000815260040161065d906116eb565b60405180910390fd5b428260000183600501546005811061068157610680611463565b5b0181905550600560018360050154610699919061170b565b6106a3919061176e565b8260050181905550600060405180608001604052803373ffffffffffffffffffffffffffffffffffffffff16815260200187878080601f016020809104026020016040519081016040528093929190818152602001838380828437600081840152601f19601f820116905080830192505050505050508152602001858152602001428152509050600181908060018154018082558091505060019003906000526020600020906004020160009091909190915060008201518160000160006101000a81548173ffffffffffffffffffffffffffffffffffffffff021916908373ffffffffffffffffffffffffffffffffffffffff16021790555060208201518160010190816107b2919061197a565b50604082015181600201556060820151816003015550503373ffffffffffffffffffffffffffffffffffffffff16600180805490506107f19190611645565b7f79072d9bee09f93b4900032f6368c206bebd16c2d0f8a6bc019b03e2b168d4ed888888426040516108269493929190611a88565b60405180910390a3505050505050565b6000600180549050905090565b60008054906101000a900473ffffffffffffffffffffffffffffffffffffffff1673ffffffffffffffffffffffffffffffffffffffff163373ffffffffffffffffffffffffffffffffffffffff16146108d1576040517f08c379a00000000000000000000000000000000000000000000000000000000081526004016108c890611b3a565b60405180910390fd5b6001808111156108e4576108e3610f70565b5b600360008373ffffffffffffffffffffffffffffffffffffffff1673ffffffffffffffffffffffffffffffffffffffff16815260200190815260200160002060009054906101000a900460ff16600181111561094357610942610f70565b5b14610983576040517f08c379a000000000000000000000000000000000000000000000000000000000815260040161097a90611bcc565b60405180910390fd5b6000600360008373ffffffffffffffffffffffffffffffffffffffff1673ffffffffffffffffffffffffffffffffffffffff16815260200190815260200160002060006101000a81548160ff021916908360018111156109e6576109e5610f70565b5b0217905550600460008273ffffffffffffffffffffffffffffffffffffffff1673ffffffffffffffffffffffffffffffffffffffff16815260200190815260200160002060008082016000610a3b9190610eb8565b600582016000905550508073ffffffffffffffffffffffffffffffffffffffff167f4b7d92215363bfa0a15c2df91163b04db19177ef65dde2eceb4f1b80d443b84460405160405180910390a250565b60008054906101000a900473ffffffffffffffffffffffffffffffffffffffff1673ffffffffffffffffffffffffffffffffffffffff163373ffffffffffffffffffffffffffffffffffffffff1614610b19576040517f08c379a0000000000000000000000000000000000000000000000000000000008152600401610b1090611b3a565b60405180910390fd5b6001600260008373ffffffffffffffffffffffffffffffffffffffff1673ffffffffffffffffffffffffffffffffffffffff16815260200190815260200160002060006101000a81548160ff0219169083151502179055506000600360008373ffffffffffffffffffffffffffffffffffffffff1673ffffffffffffffffffffffffffffffffffffffff16815260200190815260200160002060006101000a81548160ff02191690836001811115610bd457610bd3610f70565b5b02179055508073ffffffffffffffffffffffffffffffffffffffff167f52133ca86a0b20d025852c627bd9d5c8e6037a237d7ef7d22f399ae642e6b9b460405160405180910390a250565b60008054906101000a900473ffffffffffffffffffffffffffffffffffffffff1681565b60008054906101000a900473ffffffffffffffffffffffffffffffffffffffff1673ffffffffffffffffffffffffffffffffffffffff163373ffffffffffffffffffffffffffffffffffffffff1614610cd1576040517f08c379a0000000000000000000000000000000000000000000000000000000008152600401610cc890611b3a565b60405180910390fd5b6000600260008373ffffffffffffffffffffffffffffffffffffffff1673ffffffffffffffffffffffffffffffffffffffff16815260200190815260200160002060006101000a81548160ff0219169083151502179055508073ffffffffffffffffffffffffffffffffffffffff167f45f62f30e7b8439e0da7d8e560fe39d01238091ce9e789e3d12b514edf98acea60405160405180910390a250565b60026020528060005260406000206000915054906101000a900460ff1681565b60018181548110610d9f57600080fd5b90600052602060002090600402016000915090508060000160009054906101000a900473ffffffffffffffffffffffffffffffffffffffff1690806001018054610de8906114c1565b80601f0160208091040260200160405190810160405280929190818152602001828054610e14906114c1565b8015610e615780601f10610e3657610100808354040283529160200191610e61565b820191906000526020600020905b815481529060010190602001808311610e4457829003601f168201915b5050505050908060020154908060030154905084565b6040518060800160405280600073ffffffffffffffffffffffffffffffffffffffff1681526020016060815260200160008019168152602001600081525090565b506000815560010160008155600101600081556001016000815560010160009055565b600080fd5b600080fd5b600073ffffffffffffffffffffffffffffffffffffffff82169050919050565b6000610f1082610ee5565b9050919050565b610f2081610f05565b8114610f2b57600080fd5b50565b600081359050610f3d81610f17565b92915050565b600060208284031215610f5957610f58610edb565b5b6000610f6784828501610f2e565b91505092915050565b7f4e487b7100000000000000000000000000000000000000000000000000000000600052602160045260246000fd5b60028110610fb057610faf610f70565b5b50565b6000819050610fc182610f9f565b919050565b6000610fd182610fb3565b9050919050565b610fe181610fc6565b82525050565b6000602082019050610ffc6000830184610fd8565b92915050565b6000819050919050565b61101581611002565b811461102057600080fd5b50565b6000813590506110328161100c565b92915050565b60006020828403121561104e5761104d610edb565b5b600061105c84828501611023565b91505092915050565b61106e81610f05565b82525050565b600081519050919050565b600082825260208201905092915050565b60005b838110156110ae578082015181840152602081019050611093565b60008484015250505050565b6000601f19601f8301169050919050565b60006110d682611074565b6110e0818561107f565b93506110f0818560208601611090565b6110f9816110ba565b840191505092915050565b6000819050919050565b61111781611104565b82525050565b61112681611002565b82525050565b60006080830160008301516111446000860182611065565b506020830151848203602086015261115c82826110cb565b9150506040830151611171604086018261110e565b506060830151611184606086018261111d565b508091505092915050565b600060208201905081810360008301526111a9818461112c565b905092915050565b600080fd5b600080fd5b600080fd5b60008083601f8401126111d6576111d56111b1565b5b8235905067ffffffffffffffff8111156111f3576111f26111b6565b5b60208301915083600182028301111561120f5761120e6111bb565b5b9250929050565b61121f81611104565b811461122a57600080fd5b50565b60008135905061123c81611216565b92915050565b60008060006040848603121561125b5761125a610edb565b5b600084013567ffffffffffffffff81111561127957611278610ee0565b5b611285868287016111c0565b935093505060206112988682870161122d565b9150509250925092565b6112ab81611002565b82525050565b60006020820190506112c660008301846112a2565b92915050565b6112d581610f05565b82525050565b60006020820190506112f060008301846112cc565b92915050565b60008115159050919050565b61130b816112f6565b82525050565b60006020820190506113266000830184611302565b92915050565b600082825260208201905092915050565b600061134882611074565b611352818561132c565b9350611362818560208601611090565b61136b816110ba565b840191505092915050565b61137f81611104565b82525050565b600060808201905061139a60008301876112cc565b81810360208301526113ac818661133d565b90506113bb6040830185611376565b6113c860608301846112a2565b95945050505050565b7f466f72656e73696341756469743a20696e646578206f7574206f6620626f756e60008201527f6473000000000000000000000000000000000000000000000000000000000000602082015250565b600061142d60228361132c565b9150611438826113d1565b604082019050919050565b6000602082019050818103600083015261145c81611420565b9050919050565b7f4e487b7100000000000000000000000000000000000000000000000000000000600052603260045260246000fd5b7f4e487b7100000000000000000000000000000000000000000000000000000000600052602260045260246000fd5b600060028204905060018216806114d957607f821691505b6020821081036114ec576114eb611492565b5b50919050565b7f466f72656e73696341756469743a206e6f2076616c696420616363657373207460008201527f6f6b656e00000000000000000000000000000000000000000000000000000000602082015250565b600061154e60248361132c565b9150611559826114f2565b604082019050919050565b6000602082019050818103600083015261157d81611541565b9050919050565b7f466f72656e73696341756469743a20696e76657374696761746f72206973205360008201527f555350454e444544000000000000000000000000000000000000000000000000602082015250565b60006115e060288361132c565b91506115eb82611584565b604082019050919050565b6000602082019050818103600083015261160f816115d3565b9050919050565b7f4e487b7100000000000000000000000000000000000000000000000000000000600052601160045260246000fd5b600061165082611002565b915061165b83611002565b925082820390508181111561167357611672611616565b5b92915050565b7f466f72656e73696341756469743a2072617465206c696d69742065786365656460008201527f6564202d2d20696e76657374696761746f722053555350454e44454400000000602082015250565b60006116d5603c8361132c565b91506116e082611679565b604082019050919050565b60006020820190508181036000830152611704816116c8565b9050919050565b600061171682611002565b915061172183611002565b925082820190508082111561173957611738611616565b5b92915050565b7f4e487b7100000000000000000000000000000000000000000000000000000000600052601260045260246000fd5b600061177982611002565b915061178483611002565b9250826117945761179361173f565b5b828206905092915050565b7f4e487b7100000000000000000000000000000000000000000000000000000000600052604160045260246000fd5b60008190508160005260206000209050919050565b60006020601f8301049050919050565b600082821b905092915050565b6000600883026118307fffffffffffffffffffffffffffffffffffffffffffffffffffffffffffffffff826117f3565b61183a86836117f3565b95508019841693508086168417925050509392505050565b6000819050919050565b600061187761187261186d84611002565b611852565b611002565b9050919050565b6000819050919050565b6118918361185c565b6118a561189d8261187e565b848454611800565b825550505050565b600090565b6118ba6118ad565b6118c5818484611888565b505050565b5b818110156118e9576118de6000826118b2565b6001810190506118cb565b5050565b601f82111561192e576118ff816117ce565b611908846117e3565b81016020851015611917578190505b61192b611923856117e3565b8301826118ca565b50505b505050565b600082821c905092915050565b600061195160001984600802611933565b1980831691505092915050565b600061196a8383611940565b9150826002028217905092915050565b61198382611074565b67ffffffffffffffff81111561199c5761199b61179f565b5b6119a682546114c1565b6119b18282856118ed565b600060209050601f8311600181146119e457600084156119d2578287015190505b6119dc858261195e565b865550611a44565b601f1984166119f2866117ce565b60005b82811015611a1a578489015182556001820191506020850194506020810190506119f5565b86831015611a375784890151611a33601f891682611940565b8355505b6001600288020188555050505b505050505050565b82818337600083830152505050565b6000611a67838561132c565b9350611a74838584611a4c565b611a7d836110ba565b840190509392505050565b60006060820190508181036000830152611aa3818688611a5b565b9050611ab26020830185611376565b611abf60408301846112a2565b95945050505050565b7f466f72656e73696341756469743a2063616c6c6572206973206e6f742074686560008201527f206f776e65720000000000000000000000000000000000000000000000000000602082015250565b6000611b2460268361132c565b9150611b2f82611ac8565b604082019050919050565b60006020820190508181036000830152611b5381611b17565b9050919050565b7f466f72656e73696341756469743a20696e76657374696761746f72206973206e60008201527f6f742073757370656e6465640000000000000000000000000000000000000000602082015250565b6000611bb6602c8361132c565b9150611bc182611b5a565b604082019050919050565b60006020820190508181036000830152611be581611ba9565b905091905056fea26469706673582212203c3820e7804a09fb24ae27aa8c75016f12a1a932f9866c435713d52edaef077564736f6c63430008180033","opcodes":"PUSH1 0x80 PUSH1 0x40 MSTORE CALLVALUE DUP1 ISZERO PUSH2 0x10 JUMPI PUSH1 0x0 DUP1 REVERT JUMPDEST POP CALLER PUSH1 0x0 DUP1 PUSH2 0x100 EXP DUP2 SLOAD DUP2 PUSH20 0xFFFFFFFFFFFFFFFFFFFFFFFFFFFFFFFFFFFFFFFF MUL NOT AND SWAP1 DUP4 PUSH20 0xFFFFFFFFFFFFFFFFFFFFFFFFFFFFFFFFFFFFFFFF AND MUL OR SWAP1 SSTORE POP PUSH2 0x1C22 DUP1 PUSH2 0x60 PUSH1 0x0 CODECOPY PUSH1 0x0 RETURN INVALID PUSH1 0x80 PUSH1 0x40 MSTORE CALLVALUE DUP1 ISZERO PUSH2 0x10 JUMPI PUSH1 0x0 DUP1 REVERT JUMPDEST POP PUSH1 0x4 CALLDATASIZE LT PUSH2 0x9E JUMPI PUSH1 0x0 CALLDATALOAD PUSH1 0xE0 SHR DUP1 PUSH4 0x79D3D547 GT PUSH2 0x66 JUMPI DUP1 PUSH4 0x79D3D547 EQ PUSH2 0x159 JUMPI DUP1 PUSH4 0x8DA5CB5B EQ PUSH2 0x175 JUMPI DUP1 PUSH4 0x933F4EEF EQ PUSH2 0x193 JUMPI DUP1 PUSH4 0xA16B0DB0 EQ PUSH2 0x1AF JUMPI DUP1 PUSH4 0xE79899BD EQ PUSH2 0x1DF JUMPI PUSH2 0x9E JUMP JUMPDEST DUP1 PUSH4 0x5EF4D5B EQ PUSH2 0xA3 JUMPI DUP1 PUSH4 0x3206B2C6 EQ PUSH2 0xD3 JUMPI DUP1 PUSH4 0x39866E7E EQ PUSH2 0x103 JUMPI DUP1 PUSH4 0x618033DB EQ PUSH2 0x11F JUMPI DUP1 PUSH4 0x61D2A6BF EQ PUSH2 0x13D JUMPI JUMPDEST PUSH1 0x0 DUP1 REVERT JUMPDEST PUSH2 0xBD PUSH1 0x4 DUP1 CALLDATASIZE SUB DUP2 ADD SWAP1 PUSH2 0xB8 SWAP2 SWAP1 PUSH2 0xF43 JUMP JUMPDEST PUSH2 0x212 JUMP JUMPDEST PUSH1 0x40 MLOAD PUSH2 0xCA SWAP2 SWAP1 PUSH2 0xFE7 JUMP JUMPDEST PUSH1 0x40 MLOAD DUP1 SWAP2 SUB SWAP1 RETURN JUMPDEST PUSH2 0xED PUSH1 0x4 DUP1 CALLDATASIZE SUB DUP2 ADD SWAP1 PUSH2 0xE8 SWAP2 SWAP1 PUSH2 0x1038 JUMP JUMPDEST PUSH2 0x232 JUMP JUMPDEST PUSH1 0x40 MLOAD PUSH2 0xFA SWAP2 SWAP1 PUSH2 0x118F JUMP JUMPDEST PUSH1 0x40 MLOAD DUP1 SWAP2 SUB SWAP1 RETURN JUMPDEST PUSH2 0x11D PUSH1 0x4 DUP1 CALLDATASIZE SUB DUP2 ADD SWAP1 PUSH2 0x118 SWAP2 SWAP1 PUSH2 0x1242 JUMP JUMPDEST PUSH2 0x3B1 JUMP JUMPDEST STOP JUMPDEST PUSH2 0x127 PUSH2 0x836 JUMP JUMPDEST PUSH1 0x40 MLOAD PUSH2 0x134 SWAP2 SWAP1 PUSH2 0x12B1 JUMP JUMPDEST PUSH1 0x40 MLOAD DUP1 SWAP2 SUB SWAP1 RETURN JUMPDEST PUSH2 0x157 PUSH1 0x4 DUP1 CALLDATASIZE SUB DUP2 ADD SWAP1 PUSH2 0x152 SWAP2 SWAP1 PUSH2 0xF43 JUMP JUMPDEST PUSH2 0x843 JUMP JUMPDEST STOP JUMPDEST PUSH2 0x173 PUSH1 0x4 DUP1 CALLDATASIZE SUB DUP2 ADD SWAP1 PUSH2 0x16E SWAP2 SWAP1 PUSH2 0xF43 JUMP JUMPDEST PUSH2 0xA8B JUMP JUMPDEST STOP JUMPDEST PUSH2 0x17D PUSH2 0xC1F JUMP JUMPDEST PUSH1 0x40 MLOAD PUSH2 0x18A SWAP2 SWAP1 PUSH2 0x12DB JUMP JUMPDEST PUSH1 0x40 MLOAD DUP1 SWAP2 SUB SWAP1 RETURN JUMPDEST PUSH2 0x1AD PUSH1 0x4 DUP1 CALLDATASIZE SUB DUP2 ADD SWAP1 PUSH2 0x1A8 SWAP2 SWAP1 PUSH2 0xF43 JUMP JUMPDEST PUSH2 0xC43 JUMP JUMPDEST STOP JUMPDEST PUSH2 0x1C9 PUSH1 0x4 DUP1 CALLDATASIZE SUB DUP2 ADD SWAP1 PUSH2 0x1C4 SWAP2 SWAP1 PUSH2 0xF43 JUMP JUMPDEST PUSH2 0xD6F JUMP JUMPDEST PUSH1 0x40 MLOAD PUSH2 0x1D6 SWAP2 SWAP1 PUSH2 0x1311 JUMP JUMPDEST PUSH1 0x40 MLOAD DUP1 SWAP2 SUB SWAP1 RETURN JUMPDEST PUSH2 0x1F9 PUSH1 0x4 DUP1 CALLDATASIZE SUB DUP2 ADD SWAP1 PUSH2 0x1F4 SWAP2 SWAP1 PUSH2 0x1038 JUMP JUMPDEST PUSH2 0xD8F JUMP JUMPDEST PUSH1 0x40 MLOAD PUSH2 0x209 SWAP5 SWAP4 SWAP3 SWAP2 SWAP1 PUSH2 0x1385 JUMP JUMPDEST PUSH1 0x40 MLOAD DUP1 SWAP2 SUB SWAP1 RETURN JUMPDEST PUSH1 0x3 PUSH1 0x20 MSTORE DUP1 PUSH1 0x0 MSTORE PUSH1 0x40 PUSH1 0x0 KECCAK256 PUSH1 0x0 SWAP2 POP SLOAD SWAP1 PUSH2 0x100 EXP SWAP1 DIV PUSH1 0xFF AND DUP2 JUMP JUMPDEST PUSH2 0x23A PUSH2 0xE77 JUMP JUMPDEST PUSH1 0x1 DUP1 SLOAD SWAP1 POP DUP3 LT PUSH2 0x281 JUMPI PUSH1 0x40 MLOAD PUSH32 0x8C379A000000000000000000000000000000000000000000000000000000000 DUP2 MSTORE PUSH1 0x4 ADD PUSH2 0x278 SWAP1 PUSH2 0x1443 JUMP JUMPDEST PUSH1 0x40 MLOAD DUP1 SWAP2 SUB SWAP1 REVERT JUMPDEST PUSH1 0x1 DUP3 DUP2 SLOAD DUP2 LT PUSH2 0x295 JUMPI PUSH2 0x294 PUSH2 0x1463 JUMP JUMPDEST JUMPDEST SWAP1 PUSH1 0x0 MSTORE PUSH1 0x20 PUSH1 0x0 KECCAK256 SWAP1 PUSH1 0x4 MUL ADD PUSH1 0x40 MLOAD DUP1 PUSH1 0x80 ADD PUSH1 0x40 MSTORE SWAP1 DUP2 PUSH1 0x0 DUP3 ADD PUSH1 0x0 SWAP1 SLOAD SWAP1 PUSH2 0x100 EXP SWAP1 DIV PUSH20 0xFFFFFFFFFFFFFFFFFFFFFFFFFFFFFFFFFFFFFFFF AND PUSH20 0xFFFFFFFFFFFFFFFFFFFFFFFFFFFFFFFFFFFFFFFF AND PUSH20 0xFFFFFFFFFFFFFFFFFFFFFFFFFFFFFFFFFFFFFFFF AND DUP2 MSTORE PUSH1 0x20 ADD PUSH1 0x1 DUP3 ADD DUP1 SLOAD PUSH2 0x314 SWAP1 PUSH2 0x14C1 JUMP JUMPDEST DUP1 PUSH1 0x1F ADD PUSH1 0x20 DUP1 SWAP2 DIV MUL PUSH1 0x20 ADD PUSH1 0x40 MLOAD SWAP1 DUP2 ADD PUSH1 0x40 MSTORE DUP1 SWAP3 SWAP2 SWAP1 DUP2 DUP2 MSTORE PUSH1 0x20 ADD DUP3 DUP1 SLOAD PUSH2 0x340 SWAP1 PUSH2 0x14C1 JUMP JUMPDEST DUP1 ISZERO PUSH2 0x38D JUMPI DUP1 PUSH1 0x1F LT PUSH2 0x362 JUMPI PUSH2 0x100 DUP1 DUP4 SLOAD DIV MUL DUP4 MSTORE SWAP2 PUSH1 0x20 ADD SWAP2 PUSH2 0x38D JUMP JUMPDEST DUP3 ADD SWAP2 SWAP1 PUSH1 0x0 MSTORE PUSH1 0x20 PUSH1 0x0 KECCAK256 SWAP1 JUMPDEST DUP2 SLOAD DUP2 MSTORE SWAP1 PUSH1 0x1 ADD SWAP1 PUSH1 0x20 ADD DUP1 DUP4 GT PUSH2 0x370 JUMPI DUP3 SWAP1 SUB PUSH1 0x1F AND DUP3 ADD SWAP2 JUMPDEST POP POP POP POP POP DUP2 MSTORE PUSH1 0x20 ADD PUSH1 0x2 DUP3 ADD SLOAD DUP2 MSTORE PUSH1 0x20 ADD PUSH1 0x3 DUP3 ADD SLOAD DUP2 MSTORE POP POP SWAP1 POP SWAP2 SWAP1 POP JUMP JUMPDEST PUSH1 0x2 PUSH1 0x0 CALLER PUSH20 0xFFFFFFFFFFFFFFFFFFFFFFFFFFFFFFFFFFFFFFFF AND PUSH20 0xFFFFFFFFFFFFFFFFFFFFFFFFFFFFFFFFFFFFFFFF AND DUP2 MSTORE PUSH1 0x20 ADD SWAP1 DUP2 MSTORE PUSH1 0x20 ADD PUSH1 0x0 KECCAK256 PUSH1 0x0 SWAP1 SLOAD SWAP1 PUSH2 0x100 EXP SWAP1 DIV PUSH1 0xFF AND PUSH2 0x43D JUMPI PUSH1 0x40 MLOAD PUSH32 0x8C379A000000000000000000000000000000000000000000000000000000000 DUP2 MSTORE PUSH1 0x4 ADD PUSH2 0x434 SWAP1 PUSH2 0x1564 JUMP JUMPDEST PUSH1 0x40 MLOAD DUP1 SWAP2 SUB SWAP1 REVERT JUMPDEST PUSH1 0x0 PUSH1 0x1 DUP2 GT ISZERO PUSH2 0x451 JUMPI PUSH2 0x450 PUSH2 0xF70 JUMP JUMPDEST JUMPDEST PUSH1 0x3 PUSH1 0x0 CALLER PUSH20 0xFFFFFFFFFFFFFFFFFFFFFFFFFFFFFFFFFFFFFFFF AND PUSH20 0xFFFFFFFFFFFFFFFFFFFFFFFFFFFFFFFFFFFFFFFF AND DUP2 MSTORE PUSH1 0x20 ADD SWAP1 DUP2 MSTORE PUSH1 0x20 ADD PUSH1 0x0 KECCAK256 PUSH1 0x0 SWAP1 SLOAD SWAP1 PUSH2 0x100 EXP SWAP1 DIV PUSH1 0xFF AND PUSH1 0x1 DUP2 GT ISZERO PUSH2 0x4B0 JUMPI PUSH2 0x4AF PUSH2 0xF70 JUMP JUMPDEST JUMPDEST EQ PUSH2 0x4F0 JUMPI PUSH1 0x40 MLOAD PUSH32 0x8C379A000000000000000000000000000000000000000000000000000000000 DUP2 MSTORE PUSH1 0x4 ADD PUSH2 0x4E7 SWAP1 PUSH2 0x15F6 JUMP JUMPDEST PUSH1 0x40 MLOAD DUP1 SWAP2 SUB SWAP1 REVERT JUMPDEST PUSH1 0x0 PUSH1 0x4 PUSH1 0x0 CALLER PUSH20 0xFFFFFFFFFFFFFFFFFFFFFFFFFFFFFFFFFFFFFFFF AND PUSH20 0xFFFFFFFFFFFFFFFFFFFFFFFFFFFFFFFFFFFFFFFF AND DUP2 MSTORE PUSH1 0x20 ADD SWAP1 DUP2 MSTORE PUSH1 0x20 ADD PUSH1 0x0 KECCAK256 SWAP1 POP PUSH1 0x0 DUP2 PUSH1 0x0 ADD DUP3 PUSH1 0x5 ADD SLOAD PUSH1 0x5 DUP2 LT PUSH2 0x54F JUMPI PUSH2 0x54E PUSH2 0x1463 JUMP JUMPDEST JUMPDEST ADD SLOAD SWAP1 POP PUSH1 0x0 DUP2 EQ ISZERO DUP1 ISZERO PUSH2 0x570 JUMPI POP PUSH1 0x3C DUP2 TIMESTAMP PUSH2 0x56D SWAP2 SWAP1 PUSH2 0x1645 JUMP JUMPDEST GT ISZERO JUMPDEST ISZERO PUSH2 0x666 JUMPI PUSH1 0x1 PUSH1 0x3 PUSH1 0x0 CALLER PUSH20 0xFFFFFFFFFFFFFFFFFFFFFFFFFFFFFFFFFFFFFFFF AND PUSH20 0xFFFFFFFFFFFFFFFFFFFFFFFFFFFFFFFFFFFFFFFF AND DUP2 MSTORE PUSH1 0x20 ADD SWAP1 DUP2 MSTORE PUSH1 0x20 ADD PUSH1 0x0 KECCAK256 PUSH1 0x0 PUSH2 0x100 EXP DUP2 SLOAD DUP2 PUSH1 0xFF MUL NOT AND SWAP1 DUP4 PUSH1 0x1 DUP2 GT ISZERO PUSH2 0x5D8 JUMPI PUSH2 0x5D7 PUSH2 0xF70 JUMP JUMPDEST JUMPDEST MUL OR SWAP1 SSTORE POP CALLER PUSH20 0xFFFFFFFFFFFFFFFFFFFFFFFFFFFFFFFFFFFFFFFF AND PUSH32 0x4686BA6823FEE57468519B14F5E2B44D09EE50A63C6CD759C7E9C54C5541545A TIMESTAMP PUSH1 0x40 MLOAD PUSH2 0x623 SWAP2 SWAP1 PUSH2 0x12B1 JUMP JUMPDEST PUSH1 0x40 MLOAD DUP1 SWAP2 SUB SWAP1 LOG2 PUSH1 0x40 MLOAD PUSH32 0x8C379A000000000000000000000000000000000000000000000000000000000 DUP2 MSTORE PUSH1 0x4 ADD PUSH2 0x65D SWAP1 PUSH2 0x16EB JUMP JUMPDEST PUSH1 0x40 MLOAD DUP1 SWAP2 SUB SWAP1 REVERT JUMPDEST TIMESTAMP DUP3 PUSH1 0x0 ADD DUP4 PUSH1 0x5 ADD SLOAD PUSH1 0x5 DUP2 LT PUSH2 0x681 JUMPI PUSH2 0x680 PUSH2 0x1463 JUMP JUMPDEST JUMPDEST ADD DUP2 SWAP1 SSTORE POP PUSH1 0x5 PUSH1 0x1 DUP4 PUSH1 0x5 ADD SLOAD PUSH2 0x699 SWAP2 SWAP1 PUSH2 0x170B JUMP JUMPDEST PUSH2 0x6A3 SWAP2 SWAP1 PUSH2 0x176E JUMP JUMPDEST DUP3 PUSH1 0x5 ADD DUP2 SWAP1 SSTORE POP PUSH1 0x0 PUSH1 0x40 MLOAD DUP1 PUSH1 0x80 ADD PUSH1 0x40 MSTORE DUP1 CALLER PUSH20 0xFFFFFFFFFFFFFFFFFFFFFFFFFFFFFFFFFFFFFFFF AND DUP2 MSTORE PUSH1 0x20 ADD DUP8 DUP8 DUP1 DUP1 PUSH1 0x1F ADD PUSH1 0x20 DUP1 SWAP2 DIV MUL PUSH1 0x20 ADD PUSH1 0x40 MLOAD SWAP1 DUP2 ADD PUSH1 0x40 MSTORE DUP1 SWAP4 SWAP3 SWAP2 SWAP1 DUP2 DUP2 MSTORE PUSH1 0x20 ADD DUP4 DUP4 DUP1 DUP3 DUP5 CALLDATACOPY PUSH1 0x0 DUP2 DUP5 ADD MSTORE PUSH1 0x1F NOT PUSH1 0x1F DUP3 ADD AND SWAP1 POP DUP1 DUP4 ADD SWAP3 POP POP POP POP POP POP POP DUP2 MSTORE PUSH1 0x20 ADD DUP6 DUP2 MSTORE PUSH1 0x20 ADD TIMESTAMP DUP2 MSTORE POP SWAP1 POP PUSH1 0x1 DUP2 SWAP1 DUP1 PUSH1 0x1 DUP2 SLOAD ADD DUP1 DUP3 SSTORE DUP1 SWAP2 POP POP PUSH1 0x1 SWAP1 SUB SWAP1 PUSH1 0x0 MSTORE PUSH1 0x20 PUSH1 0x0 KECCAK256 SWAP1 PUSH1 0x4 MUL ADD PUSH1 0x0 SWAP1 SWAP2 SWAP1 SWAP2 SWAP1 SWAP2 POP PUSH1 0x0 DUP3 ADD MLOAD DUP2 PUSH1 0x0 ADD PUSH1 0x0 PUSH2 0x100 EXP DUP2 SLOAD DUP2 PUSH20 0xFFFFFFFFFFFFFFFFFFFFFFFFFFFFFFFFFFFFFFFF MUL NOT AND SWAP1 DUP4 PUSH20 0xFFFFFFFFFFFFFFFFFFFFFFFFFFFFFFFFFFFFFFFF AND MUL OR SWAP1 SSTORE POP PUSH1 0x20 DUP3 ADD MLOAD DUP2 PUSH1 0x1 ADD SWAP1 DUP2 PUSH2 0x7B2 SWAP2 SWAP1 PUSH2 0x197A JUMP JUMPDEST POP PUSH1 0x40 DUP3 ADD MLOAD DUP2 PUSH1 0x2 ADD SSTORE PUSH1 0x60 DUP3 ADD MLOAD DUP2 PUSH1 0x3 ADD SSTORE POP POP CALLER PUSH20 0xFFFFFFFFFFFFFFFFFFFFFFFFFFFFFFFFFFFFFFFF AND PUSH1 0x1 DUP1 DUP1 SLOAD SWAP1 POP PUSH2 0x7F1 SWAP2 SWAP1 PUSH2 0x1645 JUMP JUMPDEST PUSH32 0x79072D9BEE09F93B4900032F6368C206BEBD16C2D0F8A6BC019B03E2B168D4ED DUP9 DUP9 DUP9 TIMESTAMP PUSH1 0x40 MLOAD PUSH2 0x826 SWAP5 SWAP4 SWAP3 SWAP2 SWAP1 PUSH2 0x1A88 JUMP JUMPDEST PUSH1 0x40 MLOAD DUP1 SWAP2 SUB SWAP1 LOG3 POP POP POP POP POP POP JUMP JUMPDEST PUSH1 0x0 PUSH1 0x1 DUP1 SLOAD SWAP1 POP SWAP1 POP SWAP1 JUMP JUMPDEST PUSH1 0x0 DUP1 SLOAD SWAP1 PUSH2 0x100 EXP SWAP1 DIV PUSH20 0xFFFFFFFFFFFFFFFFFFFFFFFFFFFFFFFFFFFFFFFF AND PUSH20 0xFFFFFFFFFFFFFFFFFFFFFFFFFFFFFFFFFFFFFFFF AND CALLER PUSH20 0xFFFFFFFFFFFFFFFFFFFFFFFFFFFFFFFFFFFFFFFF AND EQ PUSH2 0x8D1 JUMPI PUSH1 0x40 MLOAD PUSH32 0x8C379A000000000000000000000000000000000000000000000000000000000 DUP2 MSTORE PUSH1 0x4 ADD PUSH2 0x8C8 SWAP1 PUSH2 0x1B3A JUMP JUMPDEST PUSH1 0x40 MLOAD DUP1 SWAP2 SUB SWAP1 REVERT JUMPDEST PUSH1 0x1 DUP1 DUP2 GT ISZERO PUSH2 0x8E4 JUMPI PUSH2 0x8E3 PUSH2 0xF70 JUMP JUMPDEST JUMPDEST PUSH1 0x3 PUSH1 0x0 DUP4 PUSH20 0xFFFFFFFFFFFFFFFFFFFFFFFFFFFFFFFFFFFFFFFF AND PUSH20 0xFFFFFFFFFFFFFFFFFFFFFFFFFFFFFFFFFFFFFFFF AND DUP2 MSTORE PUSH1 0x20 ADD SWAP1 DUP2 MSTORE PUSH1 0x20 ADD PUSH1 0x0 KECCAK256 PUSH1 0x0 SWAP1 SLOAD SWAP1 PUSH2 0x100 EXP SWAP1 DIV PUSH1 0xFF AND PUSH1 0x1 DUP2 GT ISZERO PUSH2 0x943 JUMPI PUSH2 0x942 PUSH2 0xF70 JUMP JUMPDEST JUMPDEST EQ PUSH2 0x983 JUMPI PUSH1 0x40 MLOAD PUSH32 0x8C379A000000000000000000000000000000000000000000000000000000000 DUP2 MSTORE PUSH1 0x4 ADD PUSH2 0x97A SWAP1 PUSH2 0x1BCC JUMP JUMPDEST PUSH1 0x40 MLOAD DUP1 SWAP2 SUB SWAP1 REVERT JUMPDEST PUSH1 0x0 PUSH1 0x3 PUSH1 0x0 DUP4 PUSH20 0xFFFFFFFFFFFFFFFFFFFFFFFFFFFFFFFFFFFFFFFF AND PUSH20 0xFFFFFFFFFFFFFFFFFFFFFFFFFFFFFFFFFFFFFFFF AND DUP2 MSTORE PUSH1 0x20 ADD SWAP1 DUP2 MSTORE PUSH1 0x20 ADD PUSH1 0x0 KECCAK256 PUSH1 0x0 PUSH2 0x100 EXP DUP2 SLOAD DUP2 PUSH1 0xFF MUL NOT AND SWAP1 DUP4 PUSH1 0x1 DUP2 GT ISZERO PUSH2 0x9E6 JUMPI PUSH2 0x9E5 PUSH2 0xF70 JUMP JUMPDEST JUMPDEST MUL OR SWAP1 SSTORE POP PUSH1 0x4 PUSH1 0x0 DUP3 PUSH20 0xFFFFFFFFFFFFFFFFFFFFFFFFFFFFFFFFFFFFFFFF AND PUSH20 0xFFFFFFFFFFFFFFFFFFFFFFFFFFFFFFFFFFFFFFFF AND DUP2 MSTORE PUSH1 0x20 ADD SWAP1 DUP2 MSTORE PUSH1 0x20 ADD PUSH1 0x0 KECCAK256 PUSH1 0x0 DUP1 DUP3 ADD PUSH1 0x0 PUSH2 0xA3B SWAP2 SWAP1 PUSH2 0xEB8 JUMP JUMPDEST PUSH1 0x5 DUP3 ADD PUSH1 0x0 SWAP1 SSTORE POP POP DUP1 PUSH20 0xFFFFFFFFFFFFFFFFFFFFFFFFFFFFFFFFFFFFFFFF AND PUSH32 0x4B7D92215363BFA0A15C2DF91163B04DB19177EF65DDE2ECEB4F1B80D443B844 PUSH1 0x40 MLOAD PUSH1 0x40 MLOAD DUP1 SWAP2 SUB SWAP1 LOG2 POP JUMP JUMPDEST PUSH1 0x0 DUP1 SLOAD SWAP1 PUSH2 0x100 EXP SWAP1 DIV PUSH20 0xFFFFFFFFFFFFFFFFFFFFFFFFFFFFFFFFFFFFFFFF AND PUSH20 0xFFFFFFFFFFFFFFFFFFFFFFFFFFFFFFFFFFFFFFFF AND CALLER PUSH20 0xFFFFFFFFFFFFFFFFFFFFFFFFFFFFFFFFFFFFFFFF AND EQ PUSH2 0xB19 JUMPI PUSH1 0x40 MLOAD PUSH32 0x8C379A000000000000000000000000000000000000000000000000000000000 DUP2 MSTORE PUSH1 0x4 ADD PUSH2 0xB10 SWAP1 PUSH2 0x1B3A JUMP JUMPDEST PUSH1 0x40 MLOAD DUP1 SWAP2 SUB SWAP1 REVERT JUMPDEST PUSH1 0x1 PUSH1 0x2 PUSH1 0x0 DUP4 PUSH20 0xFFFFFFFFFFFFFFFFFFFFFFFFFFFFFFFFFFFFFFFF AND PUSH20 0xFFFFFFFFFFFFFFFFFFFFFFFFFFFFFFFFFFFFFFFF AND DUP2 MSTORE PUSH1 0x20 ADD SWAP1 DUP2 MSTORE PUSH1 0x20 ADD PUSH1 0x0 KECCAK256 PUSH1 0x0 PUSH2 0x100 EXP DUP2 SLOAD DUP2 PUSH1 0xFF MUL NOT AND SWAP1 DUP4 ISZERO ISZERO MUL OR SWAP1 SSTORE POP PUSH1 0x0 PUSH1 0x3 PUSH1 0x0 DUP4 PUSH20 0xFFFFFFFFFFFFFFFFFFFFFFFFFFFFFFFFFFFFFFFF AND PUSH20 0xFFFFFFFFFFFFFFFFFFFFFFFFFFFFFFFFFFFFFFFF AND DUP2 MSTORE PUSH1 0x20 ADD SWAP1 DUP2 MSTORE PUSH1 0x20 ADD PUSH1 0x0 KECCAK256 PUSH1 0x0 PUSH2 0x100 EXP DUP2 SLOAD DUP2 PUSH1 0xFF MUL NOT AND SWAP1 DUP4 PUSH1 0x1 DUP2 GT ISZERO PUSH2 0xBD4 JUMPI PUSH2 0xBD3 PUSH2 0xF70 JUMP JUMPDEST JUMPDEST MUL OR SWAP1 SSTORE POP DUP1 PUSH20 0xFFFFFFFFFFFFFFFFFFFFFFFFFFFFFFFFFFFFFFFF AND PUSH32 0x52133CA86A0B20D025852C627BD9D5C8E6037A237D7EF7D22F399AE642E6B9B4 PUSH1 0x40 MLOAD PUSH1 0x40 MLOAD DUP1 SWAP2 SUB SWAP1 LOG2 POP JUMP JUMPDEST PUSH1 0x0 DUP1 SLOAD SWAP1 PUSH2 0x100 EXP SWAP1 DIV PUSH20 0xFFFFFFFFFFFFFFFFFFFFFFFFFFFFFFFFFFFFFFFF AND DUP2 JUMP JUMPDEST PUSH1 0x0 DUP1 SLOAD SWAP1 PUSH2 0x100 EXP SWAP1 DIV PUSH20 0xFFFFFFFFFFFFFFFFFFFFFFFFFFFFFFFFFFFFFFFF AND PUSH20 0xFFFFFFFFFFFFFFFFFFFFFFFFFFFFFFFFFFFFFFFF AND CALLER PUSH20 0xFFFFFFFFFFFFFFFFFFFFFFFFFFFFFFFFFFFFFFFF AND EQ PUSH2 0xCD1 JUMPI PUSH1 0x40 MLOAD PUSH32 0x8C379A000000000000000000000000000000000000000000000000000000000 DUP2 MSTORE PUSH1 0x4 ADD PUSH2 0xCC8 SWAP1 PUSH2 0x1B3A JUMP JUMPDEST PUSH1 0x40 MLOAD DUP1 SWAP2 SUB SWAP1 REVERT JUMPDEST PUSH1 0x0 PUSH1 0x2 PUSH1 0x0 DUP4 PUSH20 0xFFFFFFFFFFFFFFFFFFFFFFFFFFFFFFFFFFFFFFFF AND PUSH20 0xFFFFFFFFFFFFFFFFFFFFFFFFFFFFFFFFFFFFFFFF AND DUP2 MSTORE PUSH1 0x20 ADD SWAP1 DUP2 MSTORE PUSH1 0x20 ADD PUSH1 0x0 KECCAK256 PUSH1 0x0 PUSH2 0x100 EXP DUP2 SLOAD DUP2 PUSH1 0xFF MUL NOT AND SWAP1 DUP4 ISZERO ISZERO MUL OR SWAP1 SSTORE POP DUP1 PUSH20 0xFFFFFFFFFFFFFFFFFFFFFFFFFFFFFFFFFFFFFFFF AND PUSH32 0x45F62F30E7B8439E0DA7D8E560FE39D01238091CE9E789E3D12B514EDF98ACEA PUSH1 0x40 MLOAD PUSH1 0x40 MLOAD DUP1 SWAP2 SUB SWAP1 LOG2 POP JUMP JUMPDEST PUSH1 0x2 PUSH1 0x20 MSTORE DUP1 PUSH1 0x0 MSTORE PUSH1 0x40 PUSH1 0x0 KECCAK256 PUSH1 0x0 SWAP2 POP SLOAD SWAP1 PUSH2 0x100 EXP SWAP1 DIV PUSH1 0xFF AND DUP2 JUMP JUMPDEST PUSH1 0x1 DUP2 DUP2 SLOAD DUP2 LT PUSH2 0xD9F JUMPI PUSH1 0x0 DUP1 REVERT JUMPDEST SWAP1 PUSH1 0x0 MSTORE PUSH1 0x20 PUSH1 0x0 KECCAK256 SWAP1 PUSH1 0x4 MUL ADD PUSH1 0x0 SWAP2 POP SWAP1 POP DUP1 PUSH1 0x0 ADD PUSH1 0x0 SWAP1 SLOAD SWAP1 PUSH2 0x100 EXP SWAP1 DIV PUSH20 0xFFFFFFFFFFFFFFFFFFFFFFFFFFFFFFFFFFFFFFFF AND SWAP1 DUP1 PUSH1 0x1 ADD DUP1 SLOAD PUSH2 0xDE8 SWAP1 PUSH2 0x14C1 JUMP JUMPDEST DUP1 PUSH1 0x1F ADD PUSH1 0x20 DUP1 SWAP2 DIV MUL PUSH1 0x20 ADD PUSH1 0x40 MLOAD SWAP1 DUP2 ADD PUSH1 0x40 MSTORE DUP1 SWAP3 SWAP2 SWAP1 DUP2 DUP2 MSTORE PUSH1 0x20 ADD DUP3 DUP1 SLOAD PUSH2 0xE14 SWAP1 PUSH2 0x14C1 JUMP JUMPDEST DUP1 ISZERO PUSH2 0xE61 JUMPI DUP1 PUSH1 0x1F LT PUSH2 0xE36 JUMPI PUSH2 0x100 DUP1 DUP4 SLOAD DIV MUL DUP4 MSTORE SWAP2 PUSH1 0x20 ADD SWAP2 PUSH2 0xE61 JUMP JUMPDEST DUP3 ADD SWAP2 SWAP1 PUSH1 0x0 MSTORE PUSH1 0x20 PUSH1 0x0 KECCAK256 SWAP1 JUMPDEST DUP2 SLOAD DUP2 MSTORE SWAP1 PUSH1 0x1 ADD SWAP1 PUSH1 0x20 ADD DUP1 DUP4 GT PUSH2 0xE44 JUMPI DUP3 SWAP1 SUB PUSH1 0x1F AND DUP3 ADD SWAP2 JUMPDEST POP POP POP POP POP SWAP1 DUP1 PUSH1 0x2 ADD SLOAD SWAP1 DUP1 PUSH1 0x3 ADD SLOAD SWAP1 POP DUP5 JUMP JUMPDEST PUSH1 0x40 MLOAD DUP1 PUSH1 0x80 ADD PUSH1 0x40 MSTORE DUP1 PUSH1 0x0 PUSH20 0xFFFFFFFFFFFFFFFFFFFFFFFFFFFFFFFFFFFFFFFF AND DUP2 MSTORE PUSH1 0x20 ADD PUSH1 0x60 DUP2 MSTORE PUSH1 0x20 ADD PUSH1 0x0 DUP1 NOT AND DUP2 MSTORE PUSH1 0x20 ADD PUSH1 0x0 DUP2 MSTORE POP SWAP1 JUMP JUMPDEST POP PUSH1 0x0 DUP2 SSTORE PUSH1 0x1 ADD PUSH1 0x0 DUP2 SSTORE PUSH1 0x1 ADD PUSH1 0x0 DUP2 SSTORE PUSH1 0x1 ADD PUSH1 0x0 DUP2 SSTORE PUSH1 0x1 ADD PUSH1 0x0 SWAP1 SSTORE JUMP JUMPDEST PUSH1 0x0 DUP1 REVERT JUMPDEST PUSH1 0x0 DUP1 REVERT JUMPDEST PUSH1 0x0 PUSH20 0xFFFFFFFFFFFFFFFFFFFFFFFFFFFFFFFFFFFFFFFF DUP3 AND SWAP1 POP SWAP2 SWAP1 POP JUMP JUMPDEST PUSH1 0x0 PUSH2 0xF10 DUP3 PUSH2 0xEE5 JUMP JUMPDEST SWAP1 POP SWAP2 SWAP1 POP JUMP JUMPDEST PUSH2 0xF20 DUP2 PUSH2 0xF05 JUMP JUMPDEST DUP2 EQ PUSH2 0xF2B JUMPI PUSH1 0x0 DUP1 REVERT JUMPDEST POP JUMP JUMPDEST PUSH1 0x0 DUP2 CALLDATALOAD SWAP1 POP PUSH2 0xF3D DUP2 PUSH2 0xF17 JUMP JUMPDEST SWAP3 SWAP2 POP POP JUMP JUMPDEST PUSH1 0x0 PUSH1 0x20 DUP3 DUP5 SUB SLT ISZERO PUSH2 0xF59 JUMPI PUSH2 0xF58 PUSH2 0xEDB JUMP JUMPDEST JUMPDEST PUSH1 0x0 PUSH2 0xF67 DUP5 DUP3 DUP6 ADD PUSH2 0xF2E JUMP JUMPDEST SWAP2 POP POP SWAP3 SWAP2 POP POP JUMP JUMPDEST PUSH32 0x4E487B7100000000000000000000000000000000000000000000000000000000 PUSH1 0x0 MSTORE PUSH1 0x21 PUSH1 0x4 MSTORE PUSH1 0x24 PUSH1 0x0 REVERT JUMPDEST PUSH1 0x2 DUP2 LT PUSH2 0xFB0 JUMPI PUSH2 0xFAF PUSH2 0xF70 JUMP JUMPDEST JUMPDEST POP JUMP JUMPDEST PUSH1 0x0 DUP2 SWAP1 POP PUSH2 0xFC1 DUP3 PUSH2 0xF9F JUMP JUMPDEST SWAP2 SWAP1 POP JUMP JUMPDEST PUSH1 0x0 PUSH2 0xFD1 DUP3 PUSH2 0xFB3 JUMP JUMPDEST SWAP1 POP SWAP2 SWAP1 POP JUMP JUMPDEST PUSH2 0xFE1 DUP2 PUSH2 0xFC6 JUMP JUMPDEST DUP3 MSTORE POP POP JUMP JUMPDEST PUSH1 0x0 PUSH1 0x20 DUP3 ADD SWAP1 POP PUSH2 0xFFC PUSH1 0x0 DUP4 ADD DUP5 PUSH2 0xFD8 JUMP JUMPDEST SWAP3 SWAP2 POP POP JUMP JUMPDEST PUSH1 0x0 DUP2 SWAP1 POP SWAP2 SWAP1 POP JUMP JUMPDEST PUSH2 0x1015 DUP2 PUSH2 0x1002 JUMP JUMPDEST DUP2 EQ PUSH2 0x1020 JUMPI PUSH1 0x0 DUP1 REVERT JUMPDEST POP JUMP JUMPDEST PUSH1 0x0 DUP2 CALLDATALOAD SWAP1 POP PUSH2 0x1032 DUP2 PUSH2 0x100C JUMP JUMPDEST SWAP3 SWAP2 POP POP JUMP JUMPDEST PUSH1 0x0 PUSH1 0x20 DUP3 DUP5 SUB SLT ISZERO PUSH2 0x104E JUMPI PUSH2 0x104D PUSH2 0xEDB JUMP JUMPDEST JUMPDEST PUSH1 0x0 PUSH2 0x105C DUP5 DUP3 DUP6 ADD PUSH2 0x1023 JUMP JUMPDEST SWAP2 POP POP SWAP3 SWAP2 POP POP JUMP JUMPDEST PUSH2 0x106E DUP2 PUSH2 0xF05 JUMP JUMPDEST DUP3 MSTORE POP POP JUMP JUMPDEST PUSH1 0x0 DUP2 MLOAD SWAP1 POP SWAP2 SWAP1 POP JUMP JUMPDEST PUSH1 0x0 DUP3 DUP3 MSTORE PUSH1 0x20 DUP3 ADD SWAP1 POP SWAP3 SWAP2 POP POP JUMP JUMPDEST PUSH1 0x0 JUMPDEST DUP4 DUP2 LT ISZERO PUSH2 0x10AE JUMPI DUP1 DUP3 ADD MLOAD DUP2 DUP5 ADD MSTORE PUSH1 0x20 DUP2 ADD SWAP1 POP PUSH2 0x1093 JUMP JUMPDEST PUSH1 0x0 DUP5 DUP5 ADD MSTORE POP POP POP POP JUMP JUMPDEST PUSH1 0x0 PUSH1 0x1F NOT PUSH1 0x1F DUP4 ADD AND SWAP1 POP SWAP2 SWAP1 POP JUMP JUMPDEST PUSH1 0x0 PUSH2 0x10D6 DUP3 PUSH2 0x1074 JUMP JUMPDEST PUSH2 0x10E0 DUP2 DUP6 PUSH2 0x107F JUMP JUMPDEST SWAP4 POP PUSH2 0x10F0 DUP2 DUP6 PUSH1 0x20 DUP7 ADD PUSH2 0x1090 JUMP JUMPDEST PUSH2 0x10F9 DUP2 PUSH2 0x10BA JUMP JUMPDEST DUP5 ADD SWAP2 POP POP SWAP3 SWAP2 POP POP JUMP JUMPDEST PUSH1 0x0 DUP2 SWAP1 POP SWAP2 SWAP1 POP JUMP JUMPDEST PUSH2 0x1117 DUP2 PUSH2 0x1104 JUMP JUMPDEST DUP3 MSTORE POP POP JUMP JUMPDEST PUSH2 0x1126 DUP2 PUSH2 0x1002 JUMP JUMPDEST DUP3 MSTORE POP POP JUMP JUMPDEST PUSH1 0x0 PUSH1 0x80 DUP4 ADD PUSH1 0x0 DUP4 ADD MLOAD PUSH2 0x1144 PUSH1 0x0 DUP7 ADD DUP3 PUSH2 0x1065 JUMP JUMPDEST POP PUSH1 0x20 DUP4 ADD MLOAD DUP5 DUP3 SUB PUSH1 0x20 DUP7 ADD MSTORE PUSH2 0x115C DUP3 DUP3 PUSH2 0x10CB JUMP JUMPDEST SWAP2 POP POP PUSH1 0x40 DUP4 ADD MLOAD PUSH2 0x1171 PUSH1 0x40 DUP7 ADD DUP3 PUSH2 0x110E JUMP JUMPDEST POP PUSH1 0x60 DUP4 ADD MLOAD PUSH2 0x1184 PUSH1 0x60 DUP7 ADD DUP3 PUSH2 0x111D JUMP JUMPDEST POP DUP1 SWAP2 POP POP SWAP3 SWAP2 POP POP JUMP JUMPDEST PUSH1 0x0 PUSH1 0x20 DUP3 ADD SWAP1 POP DUP2 DUP2 SUB PUSH1 0x0 DUP4 ADD MSTORE PUSH2 0x11A9 DUP2 DUP5 PUSH2 0x112C JUMP JUMPDEST SWAP1 POP SWAP3 SWAP2 POP POP JUMP JUMPDEST PUSH1 0x0 DUP1 REVERT JUMPDEST PUSH1 0x0 DUP1 REVERT JUMPDEST PUSH1 0x0 DUP1 REVERT JUMPDEST PUSH1 0x0 DUP1 DUP4 PUSH1 0x1F DUP5 ADD SLT PUSH2 0x11D6 JUMPI PUSH2 0x11D5 PUSH2 0x11B1 JUMP JUMPDEST JUMPDEST DUP3 CALLDATALOAD SWAP1 POP PUSH8 0xFFFFFFFFFFFFFFFF DUP2 GT ISZERO PUSH2 0x11F3 JUMPI PUSH2 0x11F2 PUSH2 0x11B6 JUMP JUMPDEST JUMPDEST PUSH1 0x20 DUP4 ADD SWAP2 POP DUP4 PUSH1 0x1 DUP3 MUL DUP4 ADD GT ISZERO PUSH2 0x120F JUMPI PUSH2 0x120E PUSH2 0x11BB JUMP JUMPDEST JUMPDEST SWAP3 POP SWAP3 SWAP1 POP JUMP JUMPDEST PUSH2 0x121F DUP2 PUSH2 0x1104 JUMP JUMPDEST DUP2 EQ PUSH2 0x122A JUMPI PUSH1 0x0 DUP1 REVERT JUMPDEST POP JUMP JUMPDEST PUSH1 0x0 DUP2 CALLDATALOAD SWAP1 POP PUSH2 0x123C DUP2 PUSH2 0x1216 JUMP JUMPDEST SWAP3 SWAP2 POP POP JUMP JUMPDEST PUSH1 0x0 DUP1 PUSH1 0x0 PUSH1 0x40 DUP5 DUP7 SUB SLT ISZERO PUSH2 0x125B JUMPI PUSH2 0x125A PUSH2 0xEDB JUMP JUMPDEST JUMPDEST PUSH1 0x0 DUP5 ADD CALLDATALOAD PUSH8 0xFFFFFFFFFFFFFFFF DUP2 GT ISZERO PUSH2 0x1279 JUMPI PUSH2 0x1278 PUSH2 0xEE0 JUMP JUMPDEST JUMPDEST PUSH2 0x1285 DUP7 DUP3 DUP8 ADD PUSH2 0x11C0 JUMP JUMPDEST SWAP4 POP SWAP4 POP POP PUSH1 0x20 PUSH2 0x1298 DUP7 DUP3 DUP8 ADD PUSH2 0x122D JUMP JUMPDEST SWAP2 POP POP SWAP3 POP SWAP3 POP SWAP3 JUMP JUMPDEST PUSH2 0x12AB DUP2 PUSH2 0x1002 JUMP JUMPDEST DUP3 MSTORE POP POP JUMP JUMPDEST PUSH1 0x0 PUSH1 0x20 DUP3 ADD SWAP1 POP PUSH2 0x12C6 PUSH1 0x0 DUP4 ADD DUP5 PUSH2 0x12A2 JUMP JUMPDEST SWAP3 SWAP2 POP POP JUMP JUMPDEST PUSH2 0x12D5 DUP2 PUSH2 0xF05 JUMP JUMPDEST DUP3 MSTORE POP POP JUMP JUMPDEST PUSH1 0x0 PUSH1 0x20 DUP3 ADD SWAP1 POP PUSH2 0x12F0 PUSH1 0x0 DUP4 ADD DUP5 PUSH2 0x12CC JUMP JUMPDEST SWAP3 SWAP2 POP POP JUMP JUMPDEST PUSH1 0x0 DUP2 ISZERO ISZERO SWAP1 POP SWAP2 SWAP1 POP JUMP JUMPDEST PUSH2 0x130B DUP2 PUSH2 0x12F6 JUMP JUMPDEST DUP3 MSTORE POP POP JUMP JUMPDEST PUSH1 0x0 PUSH1 0x20 DUP3 ADD SWAP1 POP PUSH2 0x1326 PUSH1 0x0 DUP4 ADD DUP5 PUSH2 0x1302 JUMP JUMPDEST SWAP3 SWAP2 POP POP JUMP JUMPDEST PUSH1 0x0 DUP3 DUP3 MSTORE PUSH1 0x20 DUP3 ADD SWAP1 POP SWAP3 SWAP2 POP POP JUMP JUMPDEST PUSH1 0x0 PUSH2 0x1348 DUP3 PUSH2 0x1074 JUMP JUMPDEST PUSH2 0x1352 DUP2 DUP6 PUSH2 0x132C JUMP JUMPDEST SWAP4 POP PUSH2 0x1362 DUP2 DUP6 PUSH1 0x20 DUP7 ADD PUSH2 0x1090 JUMP JUMPDEST PUSH2 0x136B DUP2 PUSH2 0x10BA JUMP JUMPDEST DUP5 ADD SWAP2 POP POP SWAP3 SWAP2 POP POP JUMP JUMPDEST PUSH2 0x137F DUP2 PUSH2 0x1104 JUMP JUMPDEST DUP3 MSTORE POP POP JUMP JUMPDEST PUSH1 0x0 PUSH1 0x80 DUP3 ADD SWAP1 POP PUSH2 0x139A PUSH1 0x0 DUP4 ADD DUP8 PUSH2 0x12CC JUMP JUMPDEST DUP2 DUP2 SUB PUSH1 0x20 DUP4 ADD MSTORE PUSH2 0x13AC DUP2 DUP7 PUSH2 0x133D JUMP JUMPDEST SWAP1 POP PUSH2 0x13BB PUSH1 0x40 DUP4 ADD DUP6 PUSH2 0x1376 JUMP JUMPDEST PUSH2 0x13C8 PUSH1 0x60 DUP4 ADD DUP5 PUSH2 0x12A2 JUMP JUMPDEST SWAP6 SWAP5 POP POP POP POP POP JUMP JUMPDEST PUSH32 0x466F72656E73696341756469743A20696E646578206F7574206F6620626F756E PUSH1 0x0 DUP3 ADD MSTORE PUSH32 0x6473000000000000000000000000000000000000000000000000000000000000 PUSH1 0x20 DUP3 ADD MSTORE POP JUMP JUMPDEST PUSH1 0x0 PUSH2 0x142D PUSH1 0x22 DUP4 PUSH2 0x132C JUMP JUMPDEST SWAP2 POP PUSH2 0x1438 DUP3 PUSH2 0x13D1 JUMP JUMPDEST PUSH1 0x40 DUP3 ADD SWAP1 POP SWAP2 SWAP1 POP JUMP JUMPDEST PUSH1 0x0 PUSH1 0x20 DUP3 ADD SWAP1 POP DUP2 DUP2 SUB PUSH1 0x0 DUP4 ADD MSTORE PUSH2 0x145C DUP2 PUSH2 0x1420 JUMP JUMPDEST SWAP1 POP SWAP2 SWAP1 POP JUMP JUMPDEST PUSH32 0x4E487B7100000000000000000000000000000000000000000000000000000000 PUSH1 0x0 MSTORE PUSH1 0x32 PUSH1 0x4 MSTORE PUSH1 0x24 PUSH1 0x0 REVERT JUMPDEST PUSH32 0x4E487B7100000000000000000000000000000000000000000000000000000000 PUSH1 0x0 MSTORE PUSH1 0x22 PUSH1 0x4 MSTORE PUSH1 0x24 PUSH1 0x0 REVERT JUMPDEST PUSH1 0x0 PUSH1 0x2 DUP3 DIV SWAP1 POP PUSH1 0x1 DUP3 AND DUP1 PUSH2 0x14D9 JUMPI PUSH1 0x7F DUP3 AND SWAP2 POP JUMPDEST PUSH1 0x20 DUP3 LT DUP2 SUB PUSH2 0x14EC JUMPI PUSH2 0x14EB PUSH2 0x1492 JUMP JUMPDEST JUMPDEST POP SWAP2 SWAP1 POP JUMP JUMPDEST PUSH32 0x466F72656E73696341756469743A206E6F2076616C6964206163636573732074 PUSH1 0x0 DUP3 ADD MSTORE PUSH32 0x6F6B656E00000000000000000000000000000000000000000000000000000000 PUSH1 0x20 DUP3 ADD MSTORE POP JUMP JUMPDEST PUSH1 0x0 PUSH2 0x154E PUSH1 0x24 DUP4 PUSH2 0x132C JUMP JUMPDEST SWAP2 POP PUSH2 0x1559 DUP3 PUSH2 0x14F2 JUMP JUMPDEST PUSH1 0x40 DUP3 ADD SWAP1 POP SWAP2 SWAP1 POP JUMP JUMPDEST PUSH1 0x0 PUSH1 0x20 DUP3 ADD SWAP1 POP DUP2 DUP2 SUB PUSH1 0x0 DUP4 ADD MSTORE PUSH2 0x157D DUP2 PUSH2 0x1541 JUMP JUMPDEST SWAP1 POP SWAP2 SWAP1 POP JUMP JUMPDEST PUSH32 0x466F72656E73696341756469743A20696E76657374696761746F722069732053 PUSH1 0x0 DUP3 ADD MSTORE PUSH32 0x555350454E444544000000000000000000000000000000000000000000000000 PUSH1 0x20 DUP3 ADD MSTORE POP JUMP JUMPDEST PUSH1 0x0 PUSH2 0x15E0 PUSH1 0x28 DUP4 PUSH2 0x132C JUMP JUMPDEST SWAP2 POP PUSH2 0x15EB DUP3 PUSH2 0x1584 JUMP JUMPDEST PUSH1 0x40 DUP3 ADD SWAP1 POP SWAP2 SWAP1 POP JUMP JUMPDEST PUSH1 0x0 PUSH1 0x20 DUP3 ADD SWAP1 POP DUP2 DUP2 SUB PUSH1 0x0 DUP4 ADD MSTORE PUSH2 0x160F DUP2 PUSH2 0x15D3 JUMP JUMPDEST SWAP1 POP SWAP2 SWAP1 POP JUMP JUMPDEST PUSH32 0x4E487B7100000000000000000000000000000000000000000000000000000000 PUSH1 0x0 MSTORE PUSH1 0x11 PUSH1 0x4 MSTORE PUSH1 0x24 PUSH1 0x0 REVERT JUMPDEST PUSH1 0x0 PUSH2 0x1650 DUP3 PUSH2 0x1002 JUMP JUMPDEST SWAP2 POP PUSH2 0x165B DUP4 PUSH2 0x1002 JUMP JUMPDEST SWAP3 POP DUP3 DUP3 SUB SWAP1 POP DUP2 DUP2 GT ISZERO PUSH2 0x1673 JUMPI PUSH2 0x1672 PUSH2 0x1616 JUMP JUMPDEST JUMPDEST SWAP3 SWAP2 POP POP JUMP JUMPDEST PUSH32 0x466F72656E73696341756469743A2072617465206C696D697420657863656564 PUSH1 0x0 DUP3 ADD MSTORE PUSH32 0x6564202D2D20696E76657374696761746F722053555350454E44454400000000 PUSH1 0x20 DUP3 ADD MSTORE POP JUMP JUMPDEST PUSH1 0x0 PUSH2 0x16D5 PUSH1 0x3C DUP4 PUSH2 0x132C JUMP JUMPDEST SWAP2 POP PUSH2 0x16E0 DUP3 PUSH2 0x1679 JUMP JUMPDEST PUSH1 0x40 DUP3 ADD SWAP1 POP SWAP2 SWAP1 POP JUMP JUMPDEST PUSH1 0x0 PUSH1 0x20 DUP3 ADD SWAP1 POP DUP2 DUP2 SUB PUSH1 0x0 DUP4 ADD MSTORE PUSH2 0x1704 DUP2 PUSH2 0x16C8 JUMP JUMPDEST SWAP1 POP SWAP2 SWAP1 POP JUMP JUMPDEST PUSH1 0x0 PUSH2 0x1716 DUP3 PUSH2 0x1002 JUMP JUMPDEST SWAP2 POP PUSH2 0x1721 DUP4 PUSH2 0x1002 JUMP JUMPDEST SWAP3 POP DUP3 DUP3 ADD SWAP1 POP DUP1 DUP3 GT ISZERO PUSH2 0x1739 JUMPI PUSH2 0x1738 PUSH2 0x1616 JUMP JUMPDEST JUMPDEST SWAP3 SWAP2 POP POP JUMP JUMPDEST PUSH32 0x4E487B7100000000000000000000000000000000000000000000000000000000 PUSH1 0x0 MSTORE PUSH1 0x12 PUSH1 0x4 MSTORE PUSH1 0x24 PUSH1 0x0 REVERT JUMPDEST PUSH1 0x0 PUSH2 0x1779 DUP3 PUSH2 0x1002 JUMP JUMPDEST SWAP2 POP PUSH2 0x1784 DUP4 PUSH2 0x1002 JUMP JUMPDEST SWAP3 POP DUP3 PUSH2 0x1794 JUMPI PUSH2 0x1793 PUSH2 0x173F JUMP JUMPDEST JUMPDEST DUP3 DUP3 MOD SWAP1 POP SWAP3 SWAP2 POP POP JUMP JUMPDEST PUSH32 0x4E487B7100000000000000000000000000000000000000000000000000000000 PUSH1 0x0 MSTORE PUSH1 0x41 PUSH1 0x4 MSTORE PUSH1 0x24 PUSH1 0x0 REVERT JUMPDEST PUSH1 0x0 DUP2 SWAP1 POP DUP2 PUSH1 0x0 MSTORE PUSH1 0x20 PUSH1 0x0 KECCAK256 SWAP1 POP SWAP2 SWAP1 POP JUMP JUMPDEST PUSH1 0x0 PUSH1 0x20 PUSH1 0x1F DUP4 ADD DIV SWAP1 POP SWAP2 SWAP1 POP JUMP JUMPDEST PUSH1 0x0 DUP3 DUP3 SHL SWAP1 POP SWAP3 SWAP2 POP POP JUMP JUMPDEST PUSH1 0x0 PUSH1 0x8 DUP4 MUL PUSH2 0x1830 PUSH32 0xFFFFFFFFFFFFFFFFFFFFFFFFFFFFFFFFFFFFFFFFFFFFFFFFFFFFFFFFFFFFFFFF DUP3 PUSH2 0x17F3 JUMP JUMPDEST PUSH2 0x183A DUP7 DUP4 PUSH2 0x17F3 JUMP JUMPDEST SWAP6 POP DUP1 NOT DUP5 AND SWAP4 POP DUP1 DUP7 AND DUP5 OR SWAP3 POP POP POP SWAP4 SWAP3 POP POP POP JUMP JUMPDEST PUSH1 0x0 DUP2 SWAP1 POP SWAP2 SWAP1 POP JUMP JUMPDEST PUSH1 0x0 PUSH2 0x1877 PUSH2 0x1872 PUSH2 0x186D DUP5 PUSH2 0x1002 JUMP JUMPDEST PUSH2 0x1852 JUMP JUMPDEST PUSH2 0x1002 JUMP JUMPDEST SWAP1 POP SWAP2 SWAP1 POP JUMP JUMPDEST PUSH1 0x0 DUP2 SWAP1 POP SWAP2 SWAP1 POP JUMP JUMPDEST PUSH2 0x1891 DUP4 PUSH2 0x185C JUMP JUMPDEST PUSH2 0x18A5 PUSH2 0x189D DUP3 PUSH2 0x187E JUMP JUMPDEST DUP5 DUP5 SLOAD PUSH2 0x1800 JUMP JUMPDEST DUP3 SSTORE POP POP POP POP JUMP JUMPDEST PUSH1 0x0 SWAP1 JUMP JUMPDEST PUSH2 0x18BA PUSH2 0x18AD JUMP JUMPDEST PUSH2 0x18C5 DUP2 DUP5 DUP5 PUSH2 0x1888 JUMP JUMPDEST POP POP POP JUMP JUMPDEST JUMPDEST DUP2 DUP2 LT ISZERO PUSH2 0x18E9 JUMPI PUSH2 0x18DE PUSH1 0x0 DUP3 PUSH2 0x18B2 JUMP JUMPDEST PUSH1 0x1 DUP2 ADD SWAP1 POP PUSH2 0x18CB JUMP JUMPDEST POP POP JUMP JUMPDEST PUSH1 0x1F DUP3 GT ISZERO PUSH2 0x192E JUMPI PUSH2 0x18FF DUP2 PUSH2 0x17CE JUMP JUMPDEST PUSH2 0x1908 DUP5 PUSH2 0x17E3 JUMP JUMPDEST DUP2 ADD PUSH1 0x20 DUP6 LT ISZERO PUSH2 0x1917 JUMPI DUP2 SWAP1 POP JUMPDEST PUSH2 0x192B PUSH2 0x1923 DUP6 PUSH2 0x17E3 JUMP JUMPDEST DUP4 ADD DUP3 PUSH2 0x18CA JUMP JUMPDEST POP POP JUMPDEST POP POP POP JUMP JUMPDEST PUSH1 0x0 DUP3 DUP3 SHR SWAP1 POP SWAP3 SWAP2 POP POP JUMP JUMPDEST PUSH1 0x0 PUSH2 0x1951 PUSH1 0x0 NOT DUP5 PUSH1 0x8 MUL PUSH2 0x1933 JUMP JUMPDEST NOT DUP1 DUP4 AND SWAP2 POP POP SWAP3 SWAP2 POP POP JUMP JUMPDEST PUSH1 0x0 PUSH2 0x196A DUP4 DUP4 PUSH2 0x1940 JUMP JUMPDEST SWAP2 POP DUP3 PUSH1 0x2 MUL DUP3 OR SWAP1 POP SWAP3 SWAP2 POP POP JUMP JUMPDEST PUSH2 0x1983 DUP3 PUSH2 0x1074 JUMP JUMPDEST PUSH8 0xFFFFFFFFFFFFFFFF DUP2 GT ISZERO PUSH2 0x199C JUMPI PUSH2 0x199B PUSH2 0x179F JUMP JUMPDEST JUMPDEST PUSH2 0x19A6 DUP3 SLOAD PUSH2 0x14C1 JUMP JUMPDEST PUSH2 0x19B1 DUP3 DUP3 DUP6 PUSH2 0x18ED JUMP JUMPDEST PUSH1 0x0 PUSH1 0x20 SWAP1 POP PUSH1 0x1F DUP4 GT PUSH1 0x1 DUP2 EQ PUSH2 0x19E4 JUMPI PUSH1 0x0 DUP5 ISZERO PUSH2 0x19D2 JUMPI DUP3 DUP8 ADD MLOAD SWAP1 POP JUMPDEST PUSH2 0x19DC DUP6 DUP3 PUSH2 0x195E JUMP JUMPDEST DUP7 SSTORE POP PUSH2 0x1A44 JUMP JUMPDEST PUSH1 0x1F NOT DUP5 AND PUSH2 0x19F2 DUP7 PUSH2 0x17CE JUMP JUMPDEST PUSH1 0x0 JUMPDEST DUP3 DUP2 LT ISZERO PUSH2 0x1A1A JUMPI DUP5 DUP10 ADD MLOAD DUP3 SSTORE PUSH1 0x1 DUP3 ADD SWAP2 POP PUSH1 0x20 DUP6 ADD SWAP5 POP PUSH1 0x20 DUP2 ADD SWAP1 POP PUSH2 0x19F5 JUMP JUMPDEST DUP7 DUP4 LT ISZERO PUSH2 0x1A37 JUMPI DUP5 DUP10 ADD MLOAD PUSH2 0x1A33 PUSH1 0x1F DUP10 AND DUP3 PUSH2 0x1940 JUMP JUMPDEST DUP4 SSTORE POP JUMPDEST PUSH1 0x1 PUSH1 0x2 DUP9 MUL ADD DUP9 SSTORE POP POP POP JUMPDEST POP POP POP POP POP POP JUMP JUMPDEST DUP3 DUP2 DUP4 CALLDATACOPY PUSH1 0x0 DUP4 DUP4 ADD MSTORE POP POP POP JUMP JUMPDEST PUSH1 0x0 PUSH2 0x1A67 DUP4 DUP6 PUSH2 0x132C JUMP JUMPDEST SWAP4 POP PUSH2 0x1A74 DUP4 DUP6 DUP5 PUSH2 0x1A4C JUMP JUMPDEST PUSH2 0x1A7D DUP4 PUSH2 0x10BA JUMP JUMPDEST DUP5 ADD SWAP1 POP SWAP4 SWAP3 POP POP POP JUMP JUMPDEST PUSH1 0x0 PUSH1 0x60 DUP3 ADD SWAP1 POP DUP2 DUP2 SUB PUSH1 0x0 DUP4 ADD MSTORE PUSH2 0x1AA3 DUP2 DUP7 DUP9 PUSH2 0x1A5B JUMP JUMPDEST SWAP1 POP PUSH2 0x1AB2 PUSH1 0x20 DUP4 ADD DUP6 PUSH2 0x1376 JUMP JUMPDEST PUSH2 0x1ABF PUSH1 0x40 DUP4 ADD DUP5 PUSH2 0x12A2 JUMP JUMPDEST SWAP6 SWAP5 POP POP POP POP POP JUMP JUMPDEST PUSH32 0x466F72656E73696341756469743A2063616C6C6572206973206E6F7420746865 PUSH1 0x0 DUP3 ADD MSTORE PUSH32 0x206F776E65720000000000000000000000000000000000000000000000000000 PUSH1 0x20 DUP3 ADD MSTORE POP JUMP JUMPDEST PUSH1 0x0 PUSH2 0x1B24 PUSH1 0x26 DUP4 PUSH2 0x132C JUMP JUMPDEST SWAP2 POP PUSH2 0x1B2F DUP3 PUSH2 0x1AC8 JUMP JUMPDEST PUSH1 0x40 DUP3 ADD SWAP1 POP SWAP2 SWAP1 POP JUMP JUMPDEST PUSH1 0x0 PUSH1 0x20 DUP3 ADD SWAP1 POP DUP2 DUP2 SUB PUSH1 0x0 DUP4 ADD MSTORE PUSH2 0x1B53 DUP2 PUSH2 0x1B17 JUMP JUMPDEST SWAP1 POP SWAP2 SWAP1 POP JUMP JUMPDEST PUSH32 0x466F72656E73696341756469743A20696E76657374696761746F72206973206E PUSH1 0x0 DUP3 ADD MSTORE PUSH32 0x6F742073757370656E6465640000000000000000000000000000000000000000 PUSH1 0x20 DUP3 ADD MSTORE POP JUMP JUMPDEST PUSH1 0x0 PUSH2 0x1BB6 PUSH1 0x2C DUP4 PUSH2 0x132C JUMP JUMPDEST SWAP2 POP PUSH2 0x1BC1 DUP3 PUSH2 0x1B5A JUMP JUMPDEST PUSH1 0x40 DUP3 ADD SWAP1 POP SWAP2 SWAP1 POP JUMP JUMPDEST PUSH1 0x0 PUSH1 0x20 DUP3 ADD SWAP1 POP DUP2 DUP2 SUB PUSH1 0x0 DUP4 ADD MSTORE PUSH2 0x1BE5 DUP2 PUSH2 0x1BA9 JUMP JUMPDEST SWAP1 POP SWAP2 SWAP1 POP JUMP INVALID LOG2 PUSH5 0x6970667358 0x22 SLT KECCAK256 EXTCODECOPY CODESIZE KECCAK256 0xE7 DUP1 BLOBBASEFEE MULMOD 0xFB 0x24 0xAE 0x27 0xAA DUP13 PUSH22 0x16F12A1A932F9866C435713D52EDAEF077564736F6C PUSH4 0x43000818 STOP CALLER "},"methodIdentifiers":{"active_tokens(address)":"a16b0db0","getLog(uint256)":"3206b2c6","getLogCount()":"618033db","grantToken(address)":"79d3d547","investigator_status(address)":"05ef4d5b","logQuery(string,bytes32)":"39866e7e","logs(uint256)":"e79899bd","owner()":"8da5cb5b","reinstateInvestigator(address)":"61d2a6bf","revokeToken(address)":"933f4eef"}}}}}